{
  "abi": [
    {
      "anonymous": false,
      "inputs": [
        {
          "indexed": false,
          "internalType": "bytes32",
          "name": "name",
          "type": "bytes32"
        },
        {
          "indexed": false,
          "internalType": "string",
          "name": "description",
          "type": "string"
        },
        {
          "indexed": false,
          "internalType": "uint256",
          "name": "electionId",
          "type": "uint256"
        },
        {
          "indexed": false,
          "internalType": "bool",
          "name": "requireRegitration",
          "type": "bool"
        },
        {
          "indexed": false,
          "internalType": "uint32",
          "name": "startElection",
          "type": "uint32"
        },
        {
          "indexed": false,
          "internalType": "uint32",
          "name": "endElection",
          "type": "uint32"
        },
        {
          "indexed": false,
          "internalType": "uint32",
          "name": "startRegistration",
          "type": "uint32"
        },
        {
          "indexed": false,
          "internalType": "uint32",
          "name": "endRegistration",
          "type": "uint32"
        }
      ],
      "name": "ElectionCreated",
      "type": "event"
    },
    {
      "anonymous": false,
      "inputs": [
        {
          "indexed": false,
          "internalType": "uint32",
          "name": "electionId",
          "type": "uint32"
        },
        {
          "indexed": false,
          "internalType": "address",
          "name": "voter",
          "type": "address"
        },
        {
          "indexed": false,
          "internalType": "uint8",
          "name": "_candidateId",
          "type": "uint8"
        },
        {
          "indexed": false,
          "internalType": "uint256",
          "name": "_weight",
          "type": "uint256"
        }
      ],
      "name": "Voted",
      "type": "event"
    },
    {
      "inputs": [
        {
          "internalType": "uint32",
          "name": "_electionId",
          "type": "uint32"
        },
        {
          "internalType": "uint8",
          "name": "_candidateId",
          "type": "uint8"
        }
      ],
      "name": "candidateExists",
      "outputs": [
        {
          "internalType": "bool",
          "name": "",
          "type": "bool"
        }
      ],
      "stateMutability": "view",
      "type": "function"
    },
    {
      "inputs": [
        {
          "internalType": "uint32",
          "name": "",
          "type": "uint32"
        },
        {
          "internalType": "uint8",
          "name": "",
          "type": "uint8"
        }
      ],
      "name": "candidates",
      "outputs": [
        {
          "internalType": "bytes32",
          "name": "name",
          "type": "bytes32"
        },
        {
          "internalType": "uint256",
          "name": "voteCount",
          "type": "uint256"
        }
      ],
      "stateMutability": "view",
      "type": "function"
    },
    {
      "inputs": [
        {
          "internalType": "uint32",
          "name": "",
          "type": "uint32"
        },
        {
          "internalType": "bytes32",
          "name": "",
          "type": "bytes32"
        }
      ],
      "name": "candidatesIds",
      "outputs": [
        {
          "internalType": "uint8",
          "name": "",
          "type": "uint8"
        }
      ],
      "stateMutability": "view",
      "type": "function"
    },
    {
      "inputs": [
        {
          "internalType": "uint32",
          "name": "",
          "type": "uint32"
        },
        {
          "internalType": "uint256",
          "name": "",
          "type": "uint256"
        }
      ],
      "name": "candidatesList",
      "outputs": [
        {
          "internalType": "uint8",
          "name": "",
          "type": "uint8"
        }
      ],
      "stateMutability": "view",
      "type": "function"
    },
    {
      "inputs": [
        {
          "internalType": "uint32",
          "name": "_electionId",
          "type": "uint32"
        }
      ],
      "name": "checkElectionOpen",
      "outputs": [
        {
          "internalType": "bool",
          "name": "",
          "type": "bool"
        }
      ],
      "stateMutability": "view",
      "type": "function"
    },
    {
      "inputs": [
        {
          "internalType": "uint32",
          "name": "_electionId",
          "type": "uint32"
        }
      ],
      "name": "checkRegistrationOpen",
      "outputs": [
        {
          "internalType": "bool",
          "name": "",
          "type": "bool"
        }
      ],
      "stateMutability": "view",
      "type": "function"
    },
    {
      "inputs": [
        {
          "internalType": "bytes32",
          "name": "_name",
          "type": "bytes32"
        },
        {
          "internalType": "string",
          "name": "_description",
          "type": "string"
        },
        {
          "internalType": "bool",
          "name": "_requireRegitration",
          "type": "bool"
        },
        {
          "internalType": "bytes32[]",
          "name": "_candidates",
          "type": "bytes32[]"
        },
        {
          "internalType": "uint32",
          "name": "_startElection",
          "type": "uint32"
        },
        {
          "internalType": "uint32",
          "name": "_endElection",
          "type": "uint32"
        },
        {
          "internalType": "uint32",
          "name": "_startRegistration",
          "type": "uint32"
        },
        {
          "internalType": "uint32",
          "name": "_endRegistration",
          "type": "uint32"
        }
      ],
      "name": "createElection",
      "outputs": [],
      "stateMutability": "nonpayable",
      "type": "function"
    },
    {
      "inputs": [
        {
          "internalType": "uint32",
          "name": "_electionId",
          "type": "uint32"
        }
      ],
      "name": "electionExists",
      "outputs": [
        {
          "internalType": "bool",
          "name": "",
          "type": "bool"
        }
      ],
      "stateMutability": "view",
      "type": "function"
    },
    {
      "inputs": [
        {
          "internalType": "bytes32",
          "name": "_electionName",
          "type": "bytes32"
        }
      ],
      "name": "electionExists",
      "outputs": [
        {
          "internalType": "bool",
          "name": "",
          "type": "bool"
        }
      ],
      "stateMutability": "view",
      "type": "function"
    },
    {
      "inputs": [
        {
          "internalType": "uint32",
          "name": "_electionId",
          "type": "uint32"
        }
      ],
      "name": "getCandidatesForElection",
      "outputs": [
        {
          "internalType": "bytes32[]",
          "name": "",
          "type": "bytes32[]"
        }
      ],
      "stateMutability": "view",
      "type": "function"
    },
    {
      "inputs": [],
      "name": "getCurrentElections",
      "outputs": [
        {
          "internalType": "bytes32[]",
          "name": "",
          "type": "bytes32[]"
        }
      ],
      "stateMutability": "view",
      "type": "function"
    },
    {
      "inputs": [
        {
          "internalType": "uint32",
          "name": "_electionId",
          "type": "uint32"
        }
      ],
      "name": "register",
      "outputs": [],
      "stateMutability": "nonpayable",
      "type": "function"
    },
    {
      "inputs": [
        {
          "internalType": "uint32",
          "name": "_electionId",
          "type": "uint32"
        },
        {
          "internalType": "uint8",
          "name": "_candidateId",
          "type": "uint8"
        },
        {
          "internalType": "uint256",
          "name": "_weight",
          "type": "uint256"
        }
      ],
      "name": "vote",
      "outputs": [],
      "stateMutability": "nonpayable",
      "type": "function"
    },
    {
      "inputs": [
        {
          "internalType": "uint32",
          "name": "_electionId",
          "type": "uint32"
        },
        {
          "internalType": "address",
          "name": "voter",
          "type": "address"
        }
      ],
      "name": "voterHasRegistred",
      "outputs": [
        {
          "internalType": "bool",
          "name": "",
          "type": "bool"
        }
      ],
      "stateMutability": "view",
      "type": "function"
    },
    {
      "inputs": [
        {
          "internalType": "uint32",
          "name": "_electionId",
          "type": "uint32"
        },
        {
          "internalType": "address",
          "name": "voter",
          "type": "address"
        }
      ],
      "name": "voterHasVoted",
      "outputs": [
        {
          "internalType": "bool",
          "name": "",
          "type": "bool"
        }
      ],
      "stateMutability": "view",
      "type": "function"
    },
    {
      "inputs": [
        {
          "internalType": "uint32",
          "name": "",
          "type": "uint32"
        },
        {
          "internalType": "address",
          "name": "",
          "type": "address"
        }
      ],
      "name": "voters",
      "outputs": [
        {
          "internalType": "uint256",
          "name": "weight",
          "type": "uint256"
        },
        {
          "internalType": "bool",
          "name": "voted",
          "type": "bool"
        }
      ],
      "stateMutability": "view",
      "type": "function"
    }
  ],
  "bytecode": "6080604052600780546001600160401b03191664010000000117905534801561002757600080fd5b50611615806100376000396000f3fe608060405234801561001057600080fd5b50600436106101005760003560e01c80638553e12d11610097578063b957e10911610066578063b957e10914610294578063d66e33ca146102ce578063e0d7c7cc14610312578063edfbf9b01461032557600080fd5b80638553e12d1461021457806389f67182146102275780638bc31c841461023a578063901ab94d1461024d57600080fd5b80633f8c13f0116100d35780633f8c13f0146101be5780635b4206c4146101d15780637133a501146101e45780637349746b146101ec57600080fd5b8063028ff9f314610105578063130d79061461014a578063320d05731461015f5780633ec4f3621461019e575b600080fd5b6101336101133660046110ee565b600460209081526000928352604080842090915290825290205460ff1681565b60405160ff90911681526020015b60405180910390f35b61015d610158366004611118565b61036f565b005b61018e61016d366004611118565b63ffffffff9081166000908152600260208190526040909120015416151590565b6040519015158152602001610141565b6101b16101ac366004611118565b6103e6565b6040516101419190611133565b61018e6101cc366004611118565b610576565b61015d6101df366004611188565b6105d7565b6101b16105e8565b61018e6101fa3660046111c4565b60009081526020819052604090205463ffffffff16151590565b61018e6102223660046111dd565b6106e4565b6101336102353660046110ee565b610753565b61015d6102483660046112f7565b610796565b61027f61025b36600461140d565b60036020908152600092835260408084209091529082529020805460019091015482565b60408051928352602083019190915201610141565b61018e6102a236600461140d565b63ffffffff8216600090815260036020908152604080832060ff85168452909152902054151592915050565b61018e6102dc3660046111dd565b63ffffffff821660009081526006602090815260408083206001600160a01b038516845290915290206001015460ff1692915050565b61018e610320366004611118565b610bc8565b61035a6103333660046111dd565b60066020908152600092835260408084209091529082529020805460019091015460ff1682565b60408051928352901515602083015201610141565b61037881610bc8565b6103c15760405162461bcd60e51b81526020600482015260156024820152742932b3b4b9ba3930ba34b7b7103737ba1037b832b760591b60448201526064015b60405180910390fd5b63ffffffff166000908152600660209081526040808320338452909152902060019055565b63ffffffff80821660009081526002602081905260409091200154606091166104515760405162461bcd60e51b815260206004820152601a60248201527f54686520656c656374696f6e20646f65736e277420657869737400000000000060448201526064016103b8565b63ffffffff821660009081526005602052604081205467ffffffffffffffff81111561047f5761047f611220565b6040519080825280602002602001820160405280156104a8578160200160208202803683370190505b50905060005b63ffffffff841660009081526005602052604090205460ff8216101561056f5763ffffffff8416600090815260036020908152604080832060059092528220805491929160ff851690811061050557610505611440565b90600052602060002090602091828204019190069054906101000a900460ff1660ff1660ff16815260200190815260200160002060000154828260ff168151811061055257610552611440565b6020908102919091010152806105678161146c565b9150506104ae565b5092915050565b63ffffffff8082166000908152600260208190526040822001549091426501000000000090920416118015906105d1575063ffffffff8083166000908152600260208190526040909120015442600160481b90910490911610155b92915050565b6105e383338484610c24565b505050565b60015460609060009067ffffffffffffffff81111561060957610609611220565b604051908082528060200260200182016040528015610632578160200160208202803683370190505b50905060005b60015463ffffffff821610156106de576002600060018363ffffffff168154811061066557610665611440565b90600052602060002090600891828204019190066004029054906101000a900463ffffffff1663ffffffff1663ffffffff16815260200190815260200160002060000154828263ffffffff16815181106106c1576106c1611440565b6020908102919091010152806106d68161148c565b915050610638565b50919050565b63ffffffff821660009081526006602090815260408083206001600160a01b038516845290915281205415158061074c575063ffffffff831660009081526006602090815260408083206001600160a01b0386168452909152902060019081015460ff161515145b9392505050565b6005602052816000526040600020818154811061076f57600080fd5b9060005260206000209060209182820401919006915091509054906101000a900460ff1681565b60008551116107f35760405162461bcd60e51b8152602060048201526024808201527f54686572652073686f756c642062652061746c6561737420312063616e64696460448201526330ba329760e11b60648201526084016103b8565b60008881526020819052604090205463ffffffff16156108745760405162461bcd60e51b815260206004820152603660248201527f5468697320656c656374696f6e20616c7265616479206578697374732c20706c604482015275656173652073656c656374206f74686572206e616d6560501b60648201526084016103b8565b60075460408051610100810182528a815260208082018b815263ffffffff9485168385018190528b15156060850152898616608085015288861660a085015287861660c085015294861660e08401526000858152600283529390932082518155925180519293926108eb926001850192019061103c565b50604082810151600290920180546060850151608086015160a087015160c088015160e09098015163ffffffff908116600160881b0263ffffffff60881b19998216600160681b029990991667ffffffffffffffff60681b19928216600160481b026cffffffff000000000000000000199483166501000000000002949094166cffffffffffffffff0000000000199515156401000000000264ffffffffff19909716998316999099179590951793909316969096171794909416179390931790925560008b81526020819052918220805484831663ffffffff19919091168117909155600180548082018255908452600881047fb10e2d527612073b26eecdfd717e6a320cf44b4afac2b0732d9fcbe2b7fa0cf601805460079092166004026101000a9283029290930219161790555b86518160ff161015610b0157610aef82888360ff1681518110610a4157610a41611440565b6020026020010151836001610a5691906114b0565b6040805180820182528381526000602080830182815263ffffffff979097168083526003825284832060ff96871680855290835285842094518555975160019485015580835260048252848320968352958152838220805460ff19168817905594815260058552918220805491820181558252908390209281049092018054601f9093166101000a918202199092169202919091179055565b80610af98161146c565b915050610a1c565b507f8c22f42e1642c0f410bc4e3debf771a1355ec556bdaf3ce7428e555196569c968989838a89898989604051610b3f9897969594939291906114d5565b60405180910390a16007805463ffffffff16906000610b5d8361148c565b91906101000a81548163ffffffff021916908363ffffffff160217905550506007600481819054906101000a900463ffffffff1680929190610b9e9061148c565b91906101000a81548163ffffffff021916908363ffffffff16021790555050505050505050505050565b63ffffffff808216600090815260026020819052604082200154909142600160681b90920416118015906105d157505063ffffffff9081166000908152600260208190526040909120015442600160881b909104909116101590565b63ffffffff8085166000908152600260208190526040909120015416610c8c5760405162461bcd60e51b815260206004820152601a60248201527f54686520656c656374696f6e20646f65736e277420657869737400000000000060448201526064016103b8565b610c9584610576565b610cda5760405162461bcd60e51b8152602060048201526016602482015275151a1948195b1958dd1a5bdb881a5cc818db1bdcd95960521b60448201526064016103b8565b63ffffffff841660009081526002602081905260409091200154640100000000900460ff1615610d5f57610d0e84846106e4565b610d5a5760405162461bcd60e51b815260206004820152601760248201527f566f746572206861736e2774207265676973746572656400000000000000000060448201526064016103b8565b610d8d565b63ffffffff841660009081526006602090815260408083206001600160a01b03871684529091529020600190555b63ffffffff841660009081526006602090815260408083206001600160a01b038716845290915290206001015460ff1615610e0a5760405162461bcd60e51b815260206004820152601860248201527f566f7465722068617320616c726561647920566f74656421000000000000000060448201526064016103b8565b63ffffffff841660009081526006602090815260408083206001600160a01b0387168452909152902054811115610e835760405162461bcd60e51b815260206004820152601f60248201527f566f74657220646f206e6f74206861766520736f206d616e7920766f7465730060448201526064016103b8565b63ffffffff8416600090815260036020908152604080832060ff86168452909152902054610ef35760405162461bcd60e51b815260206004820152601a60248201527f496e76616c69642063616e64696461746520746f20566f74652100000000000060448201526064016103b8565b63ffffffff8416600090815260036020908152604080832060ff86168452909152902060010154610f2590829061157b565b63ffffffff8516600081815260036020908152604080832060ff88168452825280832060010194909455918152600682528281206001600160a01b03871682529091522054610f75908290611593565b63ffffffff851660009081526006602090815260408083206001600160a01b03881684529091529020819055610fdf5763ffffffff841660009081526006602090815260408083206001600160a01b038716845290915290206001908101805460ff191690911790555b6040805163ffffffff861681526001600160a01b038516602082015260ff8416818301526060810183905290517f66eb9354084da3c9417bfaeb0f63de26c8976282f67e1687af5b90e8d3fbd3879181900360800190a150505050565b828054611048906115aa565b90600052602060002090601f01602090048101928261106a57600085556110b0565b82601f1061108357805160ff19168380011785556110b0565b828001600101855582156110b0579182015b828111156110b0578251825591602001919060010190611095565b506110bc9291506110c0565b5090565b5b808211156110bc57600081556001016110c1565b803563ffffffff811681146110e957600080fd5b919050565b6000806040838503121561110157600080fd5b61110a836110d5565b946020939093013593505050565b60006020828403121561112a57600080fd5b61074c826110d5565b6020808252825182820181905260009190848201906040850190845b8181101561116b5783518352928401929184019160010161114f565b50909695505050505050565b803560ff811681146110e957600080fd5b60008060006060848603121561119d57600080fd5b6111a6846110d5565b92506111b460208501611177565b9150604084013590509250925092565b6000602082840312156111d657600080fd5b5035919050565b600080604083850312156111f057600080fd5b6111f9836110d5565b915060208301356001600160a01b038116811461121557600080fd5b809150509250929050565b634e487b7160e01b600052604160045260246000fd5b604051601f8201601f1916810167ffffffffffffffff8111828210171561125f5761125f611220565b604052919050565b803580151581146110e957600080fd5b600082601f83011261128857600080fd5b8135602067ffffffffffffffff8211156112a4576112a4611220565b8160051b6112b3828201611236565b92835284810182019282810190878511156112cd57600080fd5b83870192505b848310156112ec578235825291830191908301906112d3565b979650505050505050565b600080600080600080600080610100898b03121561131457600080fd5b883597506020808a013567ffffffffffffffff8082111561133457600080fd5b818c0191508c601f83011261134857600080fd5b81358181111561135a5761135a611220565b61136c601f8201601f19168501611236565b8181528e8583860101111561138057600080fd5b81858501868301376000858383010152809b5050506113a160408d01611267565b985060608c01359250808311156113b757600080fd5b50506113c58b828c01611277565b9550506113d460808a016110d5565b93506113e260a08a016110d5565b92506113f060c08a016110d5565b91506113fe60e08a016110d5565b90509295985092959890939650565b6000806040838503121561142057600080fd5b611429836110d5565b915061143760208401611177565b90509250929050565b634e487b7160e01b600052603260045260246000fd5b634e487b7160e01b600052601160045260246000fd5b600060ff821660ff81141561148357611483611456565b60010192915050565b600063ffffffff808316818114156114a6576114a6611456565b6001019392505050565b600060ff821660ff84168060ff038211156114cd576114cd611456565b019392505050565b60006101008a8352602081818501528a518083860152600092505b8083101561150f578b83018201518584016101200152918101916114f0565b8083111561152257600061012082870101525b601f01601f19168401610120019250611546915050604083018963ffffffff169052565b951515606082015263ffffffff948516608082015292841660a084015290831660c083015290911660e0909101529392505050565b6000821982111561158e5761158e611456565b500190565b6000828210156115a5576115a5611456565b500390565b600181811c908216806115be57607f821691505b602082108114156106de57634e487b7160e01b600052602260045260246000fdfea2646970667358221220209d30f6c7212c78b23908d72283e9edb01da4f37ca81558b9f076781272845264736f6c634300080c0033",
  "bytecodeSha1": "a175f7c0d62fb94d8d1465e0b51f825f4c5057e6",
  "compiler": {
    "evm_version": "istanbul",
    "optimizer": {
      "enabled": true,
      "runs": 200
    },
    "version": "0.8.12+commit.f00d7308"
  },
  "contractName": "SimpleElection",
  "language": "Solidity",
  "natspec": {
    "kind": "dev",
    "methods": {},
    "version": 1
  },
  "opcodes": "PUSH1 0x80 PUSH1 0x40 MSTORE CALLVALUE DUP1 ISZERO PUSH2 0x10 JUMPI PUSH1 0x0 DUP1 REVERT JUMPDEST POP PUSH1 0x4 CALLDATASIZE LT PUSH2 0x100 JUMPI PUSH1 0x0 CALLDATALOAD PUSH1 0xE0 SHR DUP1 PUSH4 0x8553E12D GT PUSH2 0x97 JUMPI DUP1 PUSH4 0xB957E109 GT PUSH2 0x66 JUMPI DUP1 PUSH4 0xB957E109 EQ PUSH2 0x294 JUMPI DUP1 PUSH4 0xD66E33CA EQ PUSH2 0x2CE JUMPI DUP1 PUSH4 0xE0D7C7CC EQ PUSH2 0x312 JUMPI DUP1 PUSH4 0xEDFBF9B0 EQ PUSH2 0x325 JUMPI PUSH1 0x0 DUP1 REVERT JUMPDEST DUP1 PUSH4 0x8553E12D EQ PUSH2 0x214 JUMPI DUP1 PUSH4 0x89F67182 EQ PUSH2 0x227 JUMPI DUP1 PUSH4 0x8BC31C84 EQ PUSH2 0x23A JUMPI DUP1 PUSH4 0x901AB94D EQ PUSH2 0x24D JUMPI PUSH1 0x0 DUP1 REVERT JUMPDEST DUP1 PUSH4 0x3F8C13F0 GT PUSH2 0xD3 JUMPI DUP1 PUSH4 0x3F8C13F0 EQ PUSH2 0x1BE JUMPI DUP1 PUSH4 0x5B4206C4 EQ PUSH2 0x1D1 JUMPI DUP1 PUSH4 0x7133A501 EQ PUSH2 0x1E4 JUMPI DUP1 PUSH4 0x7349746B EQ PUSH2 0x1EC JUMPI PUSH1 0x0 DUP1 REVERT JUMPDEST DUP1 PUSH4 0x28FF9F3 EQ PUSH2 0x105 JUMPI DUP1 PUSH4 0x130D7906 EQ PUSH2 0x14A JUMPI DUP1 PUSH4 0x320D0573 EQ PUSH2 0x15F JUMPI DUP1 PUSH4 0x3EC4F362 EQ PUSH2 0x19E JUMPI JUMPDEST PUSH1 0x0 DUP1 REVERT JUMPDEST PUSH2 0x133 PUSH2 0x113 CALLDATASIZE PUSH1 0x4 PUSH2 0x10EE JUMP JUMPDEST PUSH1 0x4 PUSH1 0x20 SWAP1 DUP2 MSTORE PUSH1 0x0 SWAP3 DUP4 MSTORE PUSH1 0x40 DUP1 DUP5 KECCAK256 SWAP1 SWAP2 MSTORE SWAP1 DUP3 MSTORE SWAP1 KECCAK256 SLOAD PUSH1 0xFF AND DUP2 JUMP JUMPDEST PUSH1 0x40 MLOAD PUSH1 0xFF SWAP1 SWAP2 AND DUP2 MSTORE PUSH1 0x20 ADD JUMPDEST PUSH1 0x40 MLOAD DUP1 SWAP2 SUB SWAP1 RETURN JUMPDEST PUSH2 0x15D PUSH2 0x158 CALLDATASIZE PUSH1 0x4 PUSH2 0x1118 JUMP JUMPDEST PUSH2 0x36F JUMP JUMPDEST STOP JUMPDEST PUSH2 0x18E PUSH2 0x16D CALLDATASIZE PUSH1 0x4 PUSH2 0x1118 JUMP JUMPDEST PUSH4 0xFFFFFFFF SWAP1 DUP2 AND PUSH1 0x0 SWAP1 DUP2 MSTORE PUSH1 0x2 PUSH1 0x20 DUP2 SWAP1 MSTORE PUSH1 0x40 SWAP1 SWAP2 KECCAK256 ADD SLOAD AND ISZERO ISZERO SWAP1 JUMP JUMPDEST PUSH1 0x40 MLOAD SWAP1 ISZERO ISZERO DUP2 MSTORE PUSH1 0x20 ADD PUSH2 0x141 JUMP JUMPDEST PUSH2 0x1B1 PUSH2 0x1AC CALLDATASIZE PUSH1 0x4 PUSH2 0x1118 JUMP JUMPDEST PUSH2 0x3E6 JUMP JUMPDEST PUSH1 0x40 MLOAD PUSH2 0x141 SWAP2 SWAP1 PUSH2 0x1133 JUMP JUMPDEST PUSH2 0x18E PUSH2 0x1CC CALLDATASIZE PUSH1 0x4 PUSH2 0x1118 JUMP JUMPDEST PUSH2 0x576 JUMP JUMPDEST PUSH2 0x15D PUSH2 0x1DF CALLDATASIZE PUSH1 0x4 PUSH2 0x1188 JUMP JUMPDEST PUSH2 0x5D7 JUMP JUMPDEST PUSH2 0x1B1 PUSH2 0x5E8 JUMP JUMPDEST PUSH2 0x18E PUSH2 0x1FA CALLDATASIZE PUSH1 0x4 PUSH2 0x11C4 JUMP JUMPDEST PUSH1 0x0 SWAP1 DUP2 MSTORE PUSH1 0x20 DUP2 SWAP1 MSTORE PUSH1 0x40 SWAP1 KECCAK256 SLOAD PUSH4 0xFFFFFFFF AND ISZERO ISZERO SWAP1 JUMP JUMPDEST PUSH2 0x18E PUSH2 0x222 CALLDATASIZE PUSH1 0x4 PUSH2 0x11DD JUMP JUMPDEST PUSH2 0x6E4 JUMP JUMPDEST PUSH2 0x133 PUSH2 0x235 CALLDATASIZE PUSH1 0x4 PUSH2 0x10EE JUMP JUMPDEST PUSH2 0x753 JUMP JUMPDEST PUSH2 0x15D PUSH2 0x248 CALLDATASIZE PUSH1 0x4 PUSH2 0x12F7 JUMP JUMPDEST PUSH2 0x796 JUMP JUMPDEST PUSH2 0x27F PUSH2 0x25B CALLDATASIZE PUSH1 0x4 PUSH2 0x140D JUMP JUMPDEST PUSH1 0x3 PUSH1 0x20 SWAP1 DUP2 MSTORE PUSH1 0x0 SWAP3 DUP4 MSTORE PUSH1 0x40 DUP1 DUP5 KECCAK256 SWAP1 SWAP2 MSTORE SWAP1 DUP3 MSTORE SWAP1 KECCAK256 DUP1 SLOAD PUSH1 0x1 SWAP1 SWAP2 ADD SLOAD DUP3 JUMP JUMPDEST PUSH1 0x40 DUP1 MLOAD SWAP3 DUP4 MSTORE PUSH1 0x20 DUP4 ADD SWAP2 SWAP1 SWAP2 MSTORE ADD PUSH2 0x141 JUMP JUMPDEST PUSH2 0x18E PUSH2 0x2A2 CALLDATASIZE PUSH1 0x4 PUSH2 0x140D JUMP JUMPDEST PUSH4 0xFFFFFFFF DUP3 AND PUSH1 0x0 SWAP1 DUP2 MSTORE PUSH1 0x3 PUSH1 0x20 SWAP1 DUP2 MSTORE PUSH1 0x40 DUP1 DUP4 KECCAK256 PUSH1 0xFF DUP6 AND DUP5 MSTORE SWAP1 SWAP2 MSTORE SWAP1 KECCAK256 SLOAD ISZERO ISZERO SWAP3 SWAP2 POP POP JUMP JUMPDEST PUSH2 0x18E PUSH2 0x2DC CALLDATASIZE PUSH1 0x4 PUSH2 0x11DD JUMP JUMPDEST PUSH4 0xFFFFFFFF DUP3 AND PUSH1 0x0 SWAP1 DUP2 MSTORE PUSH1 0x6 PUSH1 0x20 SWAP1 DUP2 MSTORE PUSH1 0x40 DUP1 DUP4 KECCAK256 PUSH1 0x1 PUSH1 0x1 PUSH1 0xA0 SHL SUB DUP6 AND DUP5 MSTORE SWAP1 SWAP2 MSTORE SWAP1 KECCAK256 PUSH1 0x1 ADD SLOAD PUSH1 0xFF AND SWAP3 SWAP2 POP POP JUMP JUMPDEST PUSH2 0x18E PUSH2 0x320 CALLDATASIZE PUSH1 0x4 PUSH2 0x1118 JUMP JUMPDEST PUSH2 0xBC8 JUMP JUMPDEST PUSH2 0x35A PUSH2 0x333 CALLDATASIZE PUSH1 0x4 PUSH2 0x11DD JUMP JUMPDEST PUSH1 0x6 PUSH1 0x20 SWAP1 DUP2 MSTORE PUSH1 0x0 SWAP3 DUP4 MSTORE PUSH1 0x40 DUP1 DUP5 KECCAK256 SWAP1 SWAP2 MSTORE SWAP1 DUP3 MSTORE SWAP1 KECCAK256 DUP1 SLOAD PUSH1 0x1 SWAP1 SWAP2 ADD SLOAD PUSH1 0xFF AND DUP3 JUMP JUMPDEST PUSH1 0x40 DUP1 MLOAD SWAP3 DUP4 MSTORE SWAP1 ISZERO ISZERO PUSH1 0x20 DUP4 ADD MSTORE ADD PUSH2 0x141 JUMP JUMPDEST PUSH2 0x378 DUP2 PUSH2 0xBC8 JUMP JUMPDEST PUSH2 0x3C1 JUMPI PUSH1 0x40 MLOAD PUSH3 0x461BCD PUSH1 0xE5 SHL DUP2 MSTORE PUSH1 0x20 PUSH1 0x4 DUP3 ADD MSTORE PUSH1 0x15 PUSH1 0x24 DUP3 ADD MSTORE PUSH21 0x2932B3B4B9BA3930BA34B7B7103737BA1037B832B7 PUSH1 0x59 SHL PUSH1 0x44 DUP3 ADD MSTORE PUSH1 0x64 ADD JUMPDEST PUSH1 0x40 MLOAD DUP1 SWAP2 SUB SWAP1 REVERT JUMPDEST PUSH4 0xFFFFFFFF AND PUSH1 0x0 SWAP1 DUP2 MSTORE PUSH1 0x6 PUSH1 0x20 SWAP1 DUP2 MSTORE PUSH1 0x40 DUP1 DUP4 KECCAK256 CALLER DUP5 MSTORE SWAP1 SWAP2 MSTORE SWAP1 KECCAK256 PUSH1 0x1 SWAP1 SSTORE JUMP JUMPDEST PUSH4 0xFFFFFFFF DUP1 DUP3 AND PUSH1 0x0 SWAP1 DUP2 MSTORE PUSH1 0x2 PUSH1 0x20 DUP2 SWAP1 MSTORE PUSH1 0x40 SWAP1 SWAP2 KECCAK256 ADD SLOAD PUSH1 0x60 SWAP2 AND PUSH2 0x451 JUMPI PUSH1 0x40 MLOAD PUSH3 0x461BCD PUSH1 0xE5 SHL DUP2 MSTORE PUSH1 0x20 PUSH1 0x4 DUP3 ADD MSTORE PUSH1 0x1A PUSH1 0x24 DUP3 ADD MSTORE PUSH32 0x54686520656C656374696F6E20646F65736E2774206578697374000000000000 PUSH1 0x44 DUP3 ADD MSTORE PUSH1 0x64 ADD PUSH2 0x3B8 JUMP JUMPDEST PUSH4 0xFFFFFFFF DUP3 AND PUSH1 0x0 SWAP1 DUP2 MSTORE PUSH1 0x5 PUSH1 0x20 MSTORE PUSH1 0x40 DUP2 KECCAK256 SLOAD PUSH8 0xFFFFFFFFFFFFFFFF DUP2 GT ISZERO PUSH2 0x47F JUMPI PUSH2 0x47F PUSH2 0x1220 JUMP JUMPDEST PUSH1 0x40 MLOAD SWAP1 DUP1 DUP3 MSTORE DUP1 PUSH1 0x20 MUL PUSH1 0x20 ADD DUP3 ADD PUSH1 0x40 MSTORE DUP1 ISZERO PUSH2 0x4A8 JUMPI DUP2 PUSH1 0x20 ADD PUSH1 0x20 DUP3 MUL DUP1 CALLDATASIZE DUP4 CALLDATACOPY ADD SWAP1 POP JUMPDEST POP SWAP1 POP PUSH1 0x0 JUMPDEST PUSH4 0xFFFFFFFF DUP5 AND PUSH1 0x0 SWAP1 DUP2 MSTORE PUSH1 0x5 PUSH1 0x20 MSTORE PUSH1 0x40 SWAP1 KECCAK256 SLOAD PUSH1 0xFF DUP3 AND LT ISZERO PUSH2 0x56F JUMPI PUSH4 0xFFFFFFFF DUP5 AND PUSH1 0x0 SWAP1 DUP2 MSTORE PUSH1 0x3 PUSH1 0x20 SWAP1 DUP2 MSTORE PUSH1 0x40 DUP1 DUP4 KECCAK256 PUSH1 0x5 SWAP1 SWAP3 MSTORE DUP3 KECCAK256 DUP1 SLOAD SWAP2 SWAP3 SWAP2 PUSH1 0xFF DUP6 AND SWAP1 DUP2 LT PUSH2 0x505 JUMPI PUSH2 0x505 PUSH2 0x1440 JUMP JUMPDEST SWAP1 PUSH1 0x0 MSTORE PUSH1 0x20 PUSH1 0x0 KECCAK256 SWAP1 PUSH1 0x20 SWAP2 DUP3 DUP3 DIV ADD SWAP2 SWAP1 MOD SWAP1 SLOAD SWAP1 PUSH2 0x100 EXP SWAP1 DIV PUSH1 0xFF AND PUSH1 0xFF AND PUSH1 0xFF AND DUP2 MSTORE PUSH1 0x20 ADD SWAP1 DUP2 MSTORE PUSH1 0x20 ADD PUSH1 0x0 KECCAK256 PUSH1 0x0 ADD SLOAD DUP3 DUP3 PUSH1 0xFF AND DUP2 MLOAD DUP2 LT PUSH2 0x552 JUMPI PUSH2 0x552 PUSH2 0x1440 JUMP JUMPDEST PUSH1 0x20 SWAP1 DUP2 MUL SWAP2 SWAP1 SWAP2 ADD ADD MSTORE DUP1 PUSH2 0x567 DUP2 PUSH2 0x146C JUMP JUMPDEST SWAP2 POP POP PUSH2 0x4AE JUMP JUMPDEST POP SWAP3 SWAP2 POP POP JUMP JUMPDEST PUSH4 0xFFFFFFFF DUP1 DUP3 AND PUSH1 0x0 SWAP1 DUP2 MSTORE PUSH1 0x2 PUSH1 0x20 DUP2 SWAP1 MSTORE PUSH1 0x40 DUP3 KECCAK256 ADD SLOAD SWAP1 SWAP2 TIMESTAMP PUSH6 0x10000000000 SWAP1 SWAP3 DIV AND GT DUP1 ISZERO SWAP1 PUSH2 0x5D1 JUMPI POP PUSH4 0xFFFFFFFF DUP1 DUP4 AND PUSH1 0x0 SWAP1 DUP2 MSTORE PUSH1 0x2 PUSH1 0x20 DUP2 SWAP1 MSTORE PUSH1 0x40 SWAP1 SWAP2 KECCAK256 ADD SLOAD TIMESTAMP PUSH1 0x1 PUSH1 0x48 SHL SWAP1 SWAP2 DIV SWAP1 SWAP2 AND LT ISZERO JUMPDEST SWAP3 SWAP2 POP POP JUMP JUMPDEST PUSH2 0x5E3 DUP4 CALLER DUP5 DUP5 PUSH2 0xC24 JUMP JUMPDEST POP POP POP JUMP JUMPDEST PUSH1 0x1 SLOAD PUSH1 0x60 SWAP1 PUSH1 0x0 SWAP1 PUSH8 0xFFFFFFFFFFFFFFFF DUP2 GT ISZERO PUSH2 0x609 JUMPI PUSH2 0x609 PUSH2 0x1220 JUMP JUMPDEST PUSH1 0x40 MLOAD SWAP1 DUP1 DUP3 MSTORE DUP1 PUSH1 0x20 MUL PUSH1 0x20 ADD DUP3 ADD PUSH1 0x40 MSTORE DUP1 ISZERO PUSH2 0x632 JUMPI DUP2 PUSH1 0x20 ADD PUSH1 0x20 DUP3 MUL DUP1 CALLDATASIZE DUP4 CALLDATACOPY ADD SWAP1 POP JUMPDEST POP SWAP1 POP PUSH1 0x0 JUMPDEST PUSH1 0x1 SLOAD PUSH4 0xFFFFFFFF DUP3 AND LT ISZERO PUSH2 0x6DE JUMPI PUSH1 0x2 PUSH1 0x0 PUSH1 0x1 DUP4 PUSH4 0xFFFFFFFF AND DUP2 SLOAD DUP2 LT PUSH2 0x665 JUMPI PUSH2 0x665 PUSH2 0x1440 JUMP JUMPDEST SWAP1 PUSH1 0x0 MSTORE PUSH1 0x20 PUSH1 0x0 KECCAK256 SWAP1 PUSH1 0x8 SWAP2 DUP3 DUP3 DIV ADD SWAP2 SWAP1 MOD PUSH1 0x4 MUL SWAP1 SLOAD SWAP1 PUSH2 0x100 EXP SWAP1 DIV PUSH4 0xFFFFFFFF AND PUSH4 0xFFFFFFFF AND PUSH4 0xFFFFFFFF AND DUP2 MSTORE PUSH1 0x20 ADD SWAP1 DUP2 MSTORE PUSH1 0x20 ADD PUSH1 0x0 KECCAK256 PUSH1 0x0 ADD SLOAD DUP3 DUP3 PUSH4 0xFFFFFFFF AND DUP2 MLOAD DUP2 LT PUSH2 0x6C1 JUMPI PUSH2 0x6C1 PUSH2 0x1440 JUMP JUMPDEST PUSH1 0x20 SWAP1 DUP2 MUL SWAP2 SWAP1 SWAP2 ADD ADD MSTORE DUP1 PUSH2 0x6D6 DUP2 PUSH2 0x148C JUMP JUMPDEST SWAP2 POP POP PUSH2 0x638 JUMP JUMPDEST POP SWAP2 SWAP1 POP JUMP JUMPDEST PUSH4 0xFFFFFFFF DUP3 AND PUSH1 0x0 SWAP1 DUP2 MSTORE PUSH1 0x6 PUSH1 0x20 SWAP1 DUP2 MSTORE PUSH1 0x40 DUP1 DUP4 KECCAK256 PUSH1 0x1 PUSH1 0x1 PUSH1 0xA0 SHL SUB DUP6 AND DUP5 MSTORE SWAP1 SWAP2 MSTORE DUP2 KECCAK256 SLOAD ISZERO ISZERO DUP1 PUSH2 0x74C JUMPI POP PUSH4 0xFFFFFFFF DUP4 AND PUSH1 0x0 SWAP1 DUP2 MSTORE PUSH1 0x6 PUSH1 0x20 SWAP1 DUP2 MSTORE PUSH1 0x40 DUP1 DUP4 KECCAK256 PUSH1 0x1 PUSH1 0x1 PUSH1 0xA0 SHL SUB DUP7 AND DUP5 MSTORE SWAP1 SWAP2 MSTORE SWAP1 KECCAK256 PUSH1 0x1 SWAP1 DUP2 ADD SLOAD PUSH1 0xFF AND ISZERO ISZERO EQ JUMPDEST SWAP4 SWAP3 POP POP POP JUMP JUMPDEST PUSH1 0x5 PUSH1 0x20 MSTORE DUP2 PUSH1 0x0 MSTORE PUSH1 0x40 PUSH1 0x0 KECCAK256 DUP2 DUP2 SLOAD DUP2 LT PUSH2 0x76F JUMPI PUSH1 0x0 DUP1 REVERT JUMPDEST SWAP1 PUSH1 0x0 MSTORE PUSH1 0x20 PUSH1 0x0 KECCAK256 SWAP1 PUSH1 0x20 SWAP2 DUP3 DUP3 DIV ADD SWAP2 SWAP1 MOD SWAP2 POP SWAP2 POP SWAP1 SLOAD SWAP1 PUSH2 0x100 EXP SWAP1 DIV PUSH1 0xFF AND DUP2 JUMP JUMPDEST PUSH1 0x0 DUP6 MLOAD GT PUSH2 0x7F3 JUMPI PUSH1 0x40 MLOAD PUSH3 0x461BCD PUSH1 0xE5 SHL DUP2 MSTORE PUSH1 0x20 PUSH1 0x4 DUP3 ADD MSTORE PUSH1 0x24 DUP1 DUP3 ADD MSTORE PUSH32 0x54686572652073686F756C642062652061746C6561737420312063616E646964 PUSH1 0x44 DUP3 ADD MSTORE PUSH4 0x30BA3297 PUSH1 0xE1 SHL PUSH1 0x64 DUP3 ADD MSTORE PUSH1 0x84 ADD PUSH2 0x3B8 JUMP JUMPDEST PUSH1 0x0 DUP9 DUP2 MSTORE PUSH1 0x20 DUP2 SWAP1 MSTORE PUSH1 0x40 SWAP1 KECCAK256 SLOAD PUSH4 0xFFFFFFFF AND ISZERO PUSH2 0x874 JUMPI PUSH1 0x40 MLOAD PUSH3 0x461BCD PUSH1 0xE5 SHL DUP2 MSTORE PUSH1 0x20 PUSH1 0x4 DUP3 ADD MSTORE PUSH1 0x36 PUSH1 0x24 DUP3 ADD MSTORE PUSH32 0x5468697320656C656374696F6E20616C7265616479206578697374732C20706C PUSH1 0x44 DUP3 ADD MSTORE PUSH22 0x656173652073656C656374206F74686572206E616D65 PUSH1 0x50 SHL PUSH1 0x64 DUP3 ADD MSTORE PUSH1 0x84 ADD PUSH2 0x3B8 JUMP JUMPDEST PUSH1 0x7 SLOAD PUSH1 0x40 DUP1 MLOAD PUSH2 0x100 DUP2 ADD DUP3 MSTORE DUP11 DUP2 MSTORE PUSH1 0x20 DUP1 DUP3 ADD DUP12 DUP2 MSTORE PUSH4 0xFFFFFFFF SWAP5 DUP6 AND DUP4 DUP6 ADD DUP2 SWAP1 MSTORE DUP12 ISZERO ISZERO PUSH1 0x60 DUP6 ADD MSTORE DUP10 DUP7 AND PUSH1 0x80 DUP6 ADD MSTORE DUP9 DUP7 AND PUSH1 0xA0 DUP6 ADD MSTORE DUP8 DUP7 AND PUSH1 0xC0 DUP6 ADD MSTORE SWAP5 DUP7 AND PUSH1 0xE0 DUP5 ADD MSTORE PUSH1 0x0 DUP6 DUP2 MSTORE PUSH1 0x2 DUP4 MSTORE SWAP4 SWAP1 SWAP4 KECCAK256 DUP3 MLOAD DUP2 SSTORE SWAP3 MLOAD DUP1 MLOAD SWAP3 SWAP4 SWAP3 PUSH2 0x8EB SWAP3 PUSH1 0x1 DUP6 ADD SWAP3 ADD SWAP1 PUSH2 0x103C JUMP JUMPDEST POP PUSH1 0x40 DUP3 DUP2 ADD MLOAD PUSH1 0x2 SWAP1 SWAP3 ADD DUP1 SLOAD PUSH1 0x60 DUP6 ADD MLOAD PUSH1 0x80 DUP7 ADD MLOAD PUSH1 0xA0 DUP8 ADD MLOAD PUSH1 0xC0 DUP9 ADD MLOAD PUSH1 0xE0 SWAP1 SWAP9 ADD MLOAD PUSH4 0xFFFFFFFF SWAP1 DUP2 AND PUSH1 0x1 PUSH1 0x88 SHL MUL PUSH4 0xFFFFFFFF PUSH1 0x88 SHL NOT SWAP10 DUP3 AND PUSH1 0x1 PUSH1 0x68 SHL MUL SWAP10 SWAP1 SWAP10 AND PUSH8 0xFFFFFFFFFFFFFFFF PUSH1 0x68 SHL NOT SWAP3 DUP3 AND PUSH1 0x1 PUSH1 0x48 SHL MUL PUSH13 0xFFFFFFFF000000000000000000 NOT SWAP5 DUP4 AND PUSH6 0x10000000000 MUL SWAP5 SWAP1 SWAP5 AND PUSH13 0xFFFFFFFFFFFFFFFF0000000000 NOT SWAP6 ISZERO ISZERO PUSH5 0x100000000 MUL PUSH5 0xFFFFFFFFFF NOT SWAP1 SWAP8 AND SWAP10 DUP4 AND SWAP10 SWAP1 SWAP10 OR SWAP6 SWAP1 SWAP6 OR SWAP4 SWAP1 SWAP4 AND SWAP7 SWAP1 SWAP7 OR OR SWAP5 SWAP1 SWAP5 AND OR SWAP4 SWAP1 SWAP4 OR SWAP1 SWAP3 SSTORE PUSH1 0x0 DUP12 DUP2 MSTORE PUSH1 0x20 DUP2 SWAP1 MSTORE SWAP2 DUP3 KECCAK256 DUP1 SLOAD DUP5 DUP4 AND PUSH4 0xFFFFFFFF NOT SWAP2 SWAP1 SWAP2 AND DUP2 OR SWAP1 SWAP2 SSTORE PUSH1 0x1 DUP1 SLOAD DUP1 DUP3 ADD DUP3 SSTORE SWAP1 DUP5 MSTORE PUSH1 0x8 DUP2 DIV PUSH32 0xB10E2D527612073B26EECDFD717E6A320CF44B4AFAC2B0732D9FCBE2B7FA0CF6 ADD DUP1 SLOAD PUSH1 0x7 SWAP1 SWAP3 AND PUSH1 0x4 MUL PUSH2 0x100 EXP SWAP3 DUP4 MUL SWAP3 SWAP1 SWAP4 MUL NOT AND OR SWAP1 SSTORE JUMPDEST DUP7 MLOAD DUP2 PUSH1 0xFF AND LT ISZERO PUSH2 0xB01 JUMPI PUSH2 0xAEF DUP3 DUP9 DUP4 PUSH1 0xFF AND DUP2 MLOAD DUP2 LT PUSH2 0xA41 JUMPI PUSH2 0xA41 PUSH2 0x1440 JUMP JUMPDEST PUSH1 0x20 MUL PUSH1 0x20 ADD ADD MLOAD DUP4 PUSH1 0x1 PUSH2 0xA56 SWAP2 SWAP1 PUSH2 0x14B0 JUMP JUMPDEST PUSH1 0x40 DUP1 MLOAD DUP1 DUP3 ADD DUP3 MSTORE DUP4 DUP2 MSTORE PUSH1 0x0 PUSH1 0x20 DUP1 DUP4 ADD DUP3 DUP2 MSTORE PUSH4 0xFFFFFFFF SWAP8 SWAP1 SWAP8 AND DUP1 DUP4 MSTORE PUSH1 0x3 DUP3 MSTORE DUP5 DUP4 KECCAK256 PUSH1 0xFF SWAP7 DUP8 AND DUP1 DUP6 MSTORE SWAP1 DUP4 MSTORE DUP6 DUP5 KECCAK256 SWAP5 MLOAD DUP6 SSTORE SWAP8 MLOAD PUSH1 0x1 SWAP5 DUP6 ADD SSTORE DUP1 DUP4 MSTORE PUSH1 0x4 DUP3 MSTORE DUP5 DUP4 KECCAK256 SWAP7 DUP4 MSTORE SWAP6 DUP2 MSTORE DUP4 DUP3 KECCAK256 DUP1 SLOAD PUSH1 0xFF NOT AND DUP9 OR SWAP1 SSTORE SWAP5 DUP2 MSTORE PUSH1 0x5 DUP6 MSTORE SWAP2 DUP3 KECCAK256 DUP1 SLOAD SWAP2 DUP3 ADD DUP2 SSTORE DUP3 MSTORE SWAP1 DUP4 SWAP1 KECCAK256 SWAP3 DUP2 DIV SWAP1 SWAP3 ADD DUP1 SLOAD PUSH1 0x1F SWAP1 SWAP4 AND PUSH2 0x100 EXP SWAP2 DUP3 MUL NOT SWAP1 SWAP3 AND SWAP3 MUL SWAP2 SWAP1 SWAP2 OR SWAP1 SSTORE JUMP JUMPDEST DUP1 PUSH2 0xAF9 DUP2 PUSH2 0x146C JUMP JUMPDEST SWAP2 POP POP PUSH2 0xA1C JUMP JUMPDEST POP PUSH32 0x8C22F42E1642C0F410BC4E3DEBF771A1355EC556BDAF3CE7428E555196569C96 DUP10 DUP10 DUP4 DUP11 DUP10 DUP10 DUP10 DUP10 PUSH1 0x40 MLOAD PUSH2 0xB3F SWAP9 SWAP8 SWAP7 SWAP6 SWAP5 SWAP4 SWAP3 SWAP2 SWAP1 PUSH2 0x14D5 JUMP JUMPDEST PUSH1 0x40 MLOAD DUP1 SWAP2 SUB SWAP1 LOG1 PUSH1 0x7 DUP1 SLOAD PUSH4 0xFFFFFFFF AND SWAP1 PUSH1 0x0 PUSH2 0xB5D DUP4 PUSH2 0x148C JUMP JUMPDEST SWAP2 SWAP1 PUSH2 0x100 EXP DUP2 SLOAD DUP2 PUSH4 0xFFFFFFFF MUL NOT AND SWAP1 DUP4 PUSH4 0xFFFFFFFF AND MUL OR SWAP1 SSTORE POP POP PUSH1 0x7 PUSH1 0x4 DUP2 DUP2 SWAP1 SLOAD SWAP1 PUSH2 0x100 EXP SWAP1 DIV PUSH4 0xFFFFFFFF AND DUP1 SWAP3 SWAP2 SWAP1 PUSH2 0xB9E SWAP1 PUSH2 0x148C JUMP JUMPDEST SWAP2 SWAP1 PUSH2 0x100 EXP DUP2 SLOAD DUP2 PUSH4 0xFFFFFFFF MUL NOT AND SWAP1 DUP4 PUSH4 0xFFFFFFFF AND MUL OR SWAP1 SSTORE POP POP POP POP POP POP POP POP POP POP POP JUMP JUMPDEST PUSH4 0xFFFFFFFF DUP1 DUP3 AND PUSH1 0x0 SWAP1 DUP2 MSTORE PUSH1 0x2 PUSH1 0x20 DUP2 SWAP1 MSTORE PUSH1 0x40 DUP3 KECCAK256 ADD SLOAD SWAP1 SWAP2 TIMESTAMP PUSH1 0x1 PUSH1 0x68 SHL SWAP1 SWAP3 DIV AND GT DUP1 ISZERO SWAP1 PUSH2 0x5D1 JUMPI POP POP PUSH4 0xFFFFFFFF SWAP1 DUP2 AND PUSH1 0x0 SWAP1 DUP2 MSTORE PUSH1 0x2 PUSH1 0x20 DUP2 SWAP1 MSTORE PUSH1 0x40 SWAP1 SWAP2 KECCAK256 ADD SLOAD TIMESTAMP PUSH1 0x1 PUSH1 0x88 SHL SWAP1 SWAP2 DIV SWAP1 SWAP2 AND LT ISZERO SWAP1 JUMP JUMPDEST PUSH4 0xFFFFFFFF DUP1 DUP6 AND PUSH1 0x0 SWAP1 DUP2 MSTORE PUSH1 0x2 PUSH1 0x20 DUP2 SWAP1 MSTORE PUSH1 0x40 SWAP1 SWAP2 KECCAK256 ADD SLOAD AND PUSH2 0xC8C JUMPI PUSH1 0x40 MLOAD PUSH3 0x461BCD PUSH1 0xE5 SHL DUP2 MSTORE PUSH1 0x20 PUSH1 0x4 DUP3 ADD MSTORE PUSH1 0x1A PUSH1 0x24 DUP3 ADD MSTORE PUSH32 0x54686520656C656374696F6E20646F65736E2774206578697374000000000000 PUSH1 0x44 DUP3 ADD MSTORE PUSH1 0x64 ADD PUSH2 0x3B8 JUMP JUMPDEST PUSH2 0xC95 DUP5 PUSH2 0x576 JUMP JUMPDEST PUSH2 0xCDA JUMPI PUSH1 0x40 MLOAD PUSH3 0x461BCD PUSH1 0xE5 SHL DUP2 MSTORE PUSH1 0x20 PUSH1 0x4 DUP3 ADD MSTORE PUSH1 0x16 PUSH1 0x24 DUP3 ADD MSTORE PUSH22 0x151A1948195B1958DD1A5BDB881A5CC818DB1BDCD959 PUSH1 0x52 SHL PUSH1 0x44 DUP3 ADD MSTORE PUSH1 0x64 ADD PUSH2 0x3B8 JUMP JUMPDEST PUSH4 0xFFFFFFFF DUP5 AND PUSH1 0x0 SWAP1 DUP2 MSTORE PUSH1 0x2 PUSH1 0x20 DUP2 SWAP1 MSTORE PUSH1 0x40 SWAP1 SWAP2 KECCAK256 ADD SLOAD PUSH5 0x100000000 SWAP1 DIV PUSH1 0xFF AND ISZERO PUSH2 0xD5F JUMPI PUSH2 0xD0E DUP5 DUP5 PUSH2 0x6E4 JUMP JUMPDEST PUSH2 0xD5A JUMPI PUSH1 0x40 MLOAD PUSH3 0x461BCD PUSH1 0xE5 SHL DUP2 MSTORE PUSH1 0x20 PUSH1 0x4 DUP3 ADD MSTORE PUSH1 0x17 PUSH1 0x24 DUP3 ADD MSTORE PUSH32 0x566F746572206861736E27742072656769737465726564000000000000000000 PUSH1 0x44 DUP3 ADD MSTORE PUSH1 0x64 ADD PUSH2 0x3B8 JUMP JUMPDEST PUSH2 0xD8D JUMP JUMPDEST PUSH4 0xFFFFFFFF DUP5 AND PUSH1 0x0 SWAP1 DUP2 MSTORE PUSH1 0x6 PUSH1 0x20 SWAP1 DUP2 MSTORE PUSH1 0x40 DUP1 DUP4 KECCAK256 PUSH1 0x1 PUSH1 0x1 PUSH1 0xA0 SHL SUB DUP8 AND DUP5 MSTORE SWAP1 SWAP2 MSTORE SWAP1 KECCAK256 PUSH1 0x1 SWAP1 SSTORE JUMPDEST PUSH4 0xFFFFFFFF DUP5 AND PUSH1 0x0 SWAP1 DUP2 MSTORE PUSH1 0x6 PUSH1 0x20 SWAP1 DUP2 MSTORE PUSH1 0x40 DUP1 DUP4 KECCAK256 PUSH1 0x1 PUSH1 0x1 PUSH1 0xA0 SHL SUB DUP8 AND DUP5 MSTORE SWAP1 SWAP2 MSTORE SWAP1 KECCAK256 PUSH1 0x1 ADD SLOAD PUSH1 0xFF AND ISZERO PUSH2 0xE0A JUMPI PUSH1 0x40 MLOAD PUSH3 0x461BCD PUSH1 0xE5 SHL DUP2 MSTORE PUSH1 0x20 PUSH1 0x4 DUP3 ADD MSTORE PUSH1 0x18 PUSH1 0x24 DUP3 ADD MSTORE PUSH32 0x566F7465722068617320616C726561647920566F746564210000000000000000 PUSH1 0x44 DUP3 ADD MSTORE PUSH1 0x64 ADD PUSH2 0x3B8 JUMP JUMPDEST PUSH4 0xFFFFFFFF DUP5 AND PUSH1 0x0 SWAP1 DUP2 MSTORE PUSH1 0x6 PUSH1 0x20 SWAP1 DUP2 MSTORE PUSH1 0x40 DUP1 DUP4 KECCAK256 PUSH1 0x1 PUSH1 0x1 PUSH1 0xA0 SHL SUB DUP8 AND DUP5 MSTORE SWAP1 SWAP2 MSTORE SWAP1 KECCAK256 SLOAD DUP2 GT ISZERO PUSH2 0xE83 JUMPI PUSH1 0x40 MLOAD PUSH3 0x461BCD PUSH1 0xE5 SHL DUP2 MSTORE PUSH1 0x20 PUSH1 0x4 DUP3 ADD MSTORE PUSH1 0x1F PUSH1 0x24 DUP3 ADD MSTORE PUSH32 0x566F74657220646F206E6F74206861766520736F206D616E7920766F74657300 PUSH1 0x44 DUP3 ADD MSTORE PUSH1 0x64 ADD PUSH2 0x3B8 JUMP JUMPDEST PUSH4 0xFFFFFFFF DUP5 AND PUSH1 0x0 SWAP1 DUP2 MSTORE PUSH1 0x3 PUSH1 0x20 SWAP1 DUP2 MSTORE PUSH1 0x40 DUP1 DUP4 KECCAK256 PUSH1 0xFF DUP7 AND DUP5 MSTORE SWAP1 SWAP2 MSTORE SWAP1 KECCAK256 SLOAD PUSH2 0xEF3 JUMPI PUSH1 0x40 MLOAD PUSH3 0x461BCD PUSH1 0xE5 SHL DUP2 MSTORE PUSH1 0x20 PUSH1 0x4 DUP3 ADD MSTORE PUSH1 0x1A PUSH1 0x24 DUP3 ADD MSTORE PUSH32 0x496E76616C69642063616E64696461746520746F20566F746521000000000000 PUSH1 0x44 DUP3 ADD MSTORE PUSH1 0x64 ADD PUSH2 0x3B8 JUMP JUMPDEST PUSH4 0xFFFFFFFF DUP5 AND PUSH1 0x0 SWAP1 DUP2 MSTORE PUSH1 0x3 PUSH1 0x20 SWAP1 DUP2 MSTORE PUSH1 0x40 DUP1 DUP4 KECCAK256 PUSH1 0xFF DUP7 AND DUP5 MSTORE SWAP1 SWAP2 MSTORE SWAP1 KECCAK256 PUSH1 0x1 ADD SLOAD PUSH2 0xF25 SWAP1 DUP3 SWAP1 PUSH2 0x157B JUMP JUMPDEST PUSH4 0xFFFFFFFF DUP6 AND PUSH1 0x0 DUP2 DUP2 MSTORE PUSH1 0x3 PUSH1 0x20 SWAP1 DUP2 MSTORE PUSH1 0x40 DUP1 DUP4 KECCAK256 PUSH1 0xFF DUP9 AND DUP5 MSTORE DUP3 MSTORE DUP1 DUP4 KECCAK256 PUSH1 0x1 ADD SWAP5 SWAP1 SWAP5 SSTORE SWAP2 DUP2 MSTORE PUSH1 0x6 DUP3 MSTORE DUP3 DUP2 KECCAK256 PUSH1 0x1 PUSH1 0x1 PUSH1 0xA0 SHL SUB DUP8 AND DUP3 MSTORE SWAP1 SWAP2 MSTORE KECCAK256 SLOAD PUSH2 0xF75 SWAP1 DUP3 SWAP1 PUSH2 0x1593 JUMP JUMPDEST PUSH4 0xFFFFFFFF DUP6 AND PUSH1 0x0 SWAP1 DUP2 MSTORE PUSH1 0x6 PUSH1 0x20 SWAP1 DUP2 MSTORE PUSH1 0x40 DUP1 DUP4 KECCAK256 PUSH1 0x1 PUSH1 0x1 PUSH1 0xA0 SHL SUB DUP9 AND DUP5 MSTORE SWAP1 SWAP2 MSTORE SWAP1 KECCAK256 DUP2 SWAP1 SSTORE PUSH2 0xFDF JUMPI PUSH4 0xFFFFFFFF DUP5 AND PUSH1 0x0 SWAP1 DUP2 MSTORE PUSH1 0x6 PUSH1 0x20 SWAP1 DUP2 MSTORE PUSH1 0x40 DUP1 DUP4 KECCAK256 PUSH1 0x1 PUSH1 0x1 PUSH1 0xA0 SHL SUB DUP8 AND DUP5 MSTORE SWAP1 SWAP2 MSTORE SWAP1 KECCAK256 PUSH1 0x1 SWAP1 DUP2 ADD DUP1 SLOAD PUSH1 0xFF NOT AND SWAP1 SWAP2 OR SWAP1 SSTORE JUMPDEST PUSH1 0x40 DUP1 MLOAD PUSH4 0xFFFFFFFF DUP7 AND DUP2 MSTORE PUSH1 0x1 PUSH1 0x1 PUSH1 0xA0 SHL SUB DUP6 AND PUSH1 0x20 DUP3 ADD MSTORE PUSH1 0xFF DUP5 AND DUP2 DUP4 ADD MSTORE PUSH1 0x60 DUP2 ADD DUP4 SWAP1 MSTORE SWAP1 MLOAD PUSH32 0x66EB9354084DA3C9417BFAEB0F63DE26C8976282F67E1687AF5B90E8D3FBD387 SWAP2 DUP2 SWAP1 SUB PUSH1 0x80 ADD SWAP1 LOG1 POP POP POP POP JUMP JUMPDEST DUP3 DUP1 SLOAD PUSH2 0x1048 SWAP1 PUSH2 0x15AA JUMP JUMPDEST SWAP1 PUSH1 0x0 MSTORE PUSH1 0x20 PUSH1 0x0 KECCAK256 SWAP1 PUSH1 0x1F ADD PUSH1 0x20 SWAP1 DIV DUP2 ADD SWAP3 DUP3 PUSH2 0x106A JUMPI PUSH1 0x0 DUP6 SSTORE PUSH2 0x10B0 JUMP JUMPDEST DUP3 PUSH1 0x1F LT PUSH2 0x1083 JUMPI DUP1 MLOAD PUSH1 0xFF NOT AND DUP4 DUP1 ADD OR DUP6 SSTORE PUSH2 0x10B0 JUMP JUMPDEST DUP3 DUP1 ADD PUSH1 0x1 ADD DUP6 SSTORE DUP3 ISZERO PUSH2 0x10B0 JUMPI SWAP2 DUP3 ADD JUMPDEST DUP3 DUP2 GT ISZERO PUSH2 0x10B0 JUMPI DUP3 MLOAD DUP3 SSTORE SWAP2 PUSH1 0x20 ADD SWAP2 SWAP1 PUSH1 0x1 ADD SWAP1 PUSH2 0x1095 JUMP JUMPDEST POP PUSH2 0x10BC SWAP3 SWAP2 POP PUSH2 0x10C0 JUMP JUMPDEST POP SWAP1 JUMP JUMPDEST JUMPDEST DUP1 DUP3 GT ISZERO PUSH2 0x10BC JUMPI PUSH1 0x0 DUP2 SSTORE PUSH1 0x1 ADD PUSH2 0x10C1 JUMP JUMPDEST DUP1 CALLDATALOAD PUSH4 0xFFFFFFFF DUP2 AND DUP2 EQ PUSH2 0x10E9 JUMPI PUSH1 0x0 DUP1 REVERT JUMPDEST SWAP2 SWAP1 POP JUMP JUMPDEST PUSH1 0x0 DUP1 PUSH1 0x40 DUP4 DUP6 SUB SLT ISZERO PUSH2 0x1101 JUMPI PUSH1 0x0 DUP1 REVERT JUMPDEST PUSH2 0x110A DUP4 PUSH2 0x10D5 JUMP JUMPDEST SWAP5 PUSH1 0x20 SWAP4 SWAP1 SWAP4 ADD CALLDATALOAD SWAP4 POP POP POP JUMP JUMPDEST PUSH1 0x0 PUSH1 0x20 DUP3 DUP5 SUB SLT ISZERO PUSH2 0x112A JUMPI PUSH1 0x0 DUP1 REVERT JUMPDEST PUSH2 0x74C DUP3 PUSH2 0x10D5 JUMP JUMPDEST PUSH1 0x20 DUP1 DUP3 MSTORE DUP3 MLOAD DUP3 DUP3 ADD DUP2 SWAP1 MSTORE PUSH1 0x0 SWAP2 SWAP1 DUP5 DUP3 ADD SWAP1 PUSH1 0x40 DUP6 ADD SWAP1 DUP5 JUMPDEST DUP2 DUP2 LT ISZERO PUSH2 0x116B JUMPI DUP4 MLOAD DUP4 MSTORE SWAP3 DUP5 ADD SWAP3 SWAP2 DUP5 ADD SWAP2 PUSH1 0x1 ADD PUSH2 0x114F JUMP JUMPDEST POP SWAP1 SWAP7 SWAP6 POP POP POP POP POP POP JUMP JUMPDEST DUP1 CALLDATALOAD PUSH1 0xFF DUP2 AND DUP2 EQ PUSH2 0x10E9 JUMPI PUSH1 0x0 DUP1 REVERT JUMPDEST PUSH1 0x0 DUP1 PUSH1 0x0 PUSH1 0x60 DUP5 DUP7 SUB SLT ISZERO PUSH2 0x119D JUMPI PUSH1 0x0 DUP1 REVERT JUMPDEST PUSH2 0x11A6 DUP5 PUSH2 0x10D5 JUMP JUMPDEST SWAP3 POP PUSH2 0x11B4 PUSH1 0x20 DUP6 ADD PUSH2 0x1177 JUMP JUMPDEST SWAP2 POP PUSH1 0x40 DUP5 ADD CALLDATALOAD SWAP1 POP SWAP3 POP SWAP3 POP SWAP3 JUMP JUMPDEST PUSH1 0x0 PUSH1 0x20 DUP3 DUP5 SUB SLT ISZERO PUSH2 0x11D6 JUMPI PUSH1 0x0 DUP1 REVERT JUMPDEST POP CALLDATALOAD SWAP2 SWAP1 POP JUMP JUMPDEST PUSH1 0x0 DUP1 PUSH1 0x40 DUP4 DUP6 SUB SLT ISZERO PUSH2 0x11F0 JUMPI PUSH1 0x0 DUP1 REVERT JUMPDEST PUSH2 0x11F9 DUP4 PUSH2 0x10D5 JUMP JUMPDEST SWAP2 POP PUSH1 0x20 DUP4 ADD CALLDATALOAD PUSH1 0x1 PUSH1 0x1 PUSH1 0xA0 SHL SUB DUP2 AND DUP2 EQ PUSH2 0x1215 JUMPI PUSH1 0x0 DUP1 REVERT JUMPDEST DUP1 SWAP2 POP POP SWAP3 POP SWAP3 SWAP1 POP JUMP JUMPDEST PUSH4 0x4E487B71 PUSH1 0xE0 SHL PUSH1 0x0 MSTORE PUSH1 0x41 PUSH1 0x4 MSTORE PUSH1 0x24 PUSH1 0x0 REVERT JUMPDEST PUSH1 0x40 MLOAD PUSH1 0x1F DUP3 ADD PUSH1 0x1F NOT AND DUP2 ADD PUSH8 0xFFFFFFFFFFFFFFFF DUP2 GT DUP3 DUP3 LT OR ISZERO PUSH2 0x125F JUMPI PUSH2 0x125F PUSH2 0x1220 JUMP JUMPDEST PUSH1 0x40 MSTORE SWAP2 SWAP1 POP JUMP JUMPDEST DUP1 CALLDATALOAD DUP1 ISZERO ISZERO DUP2 EQ PUSH2 0x10E9 JUMPI PUSH1 0x0 DUP1 REVERT JUMPDEST PUSH1 0x0 DUP3 PUSH1 0x1F DUP4 ADD SLT PUSH2 0x1288 JUMPI PUSH1 0x0 DUP1 REVERT JUMPDEST DUP2 CALLDATALOAD PUSH1 0x20 PUSH8 0xFFFFFFFFFFFFFFFF DUP3 GT ISZERO PUSH2 0x12A4 JUMPI PUSH2 0x12A4 PUSH2 0x1220 JUMP JUMPDEST DUP2 PUSH1 0x5 SHL PUSH2 0x12B3 DUP3 DUP3 ADD PUSH2 0x1236 JUMP JUMPDEST SWAP3 DUP4 MSTORE DUP5 DUP2 ADD DUP3 ADD SWAP3 DUP3 DUP2 ADD SWAP1 DUP8 DUP6 GT ISZERO PUSH2 0x12CD JUMPI PUSH1 0x0 DUP1 REVERT JUMPDEST DUP4 DUP8 ADD SWAP3 POP JUMPDEST DUP5 DUP4 LT ISZERO PUSH2 0x12EC JUMPI DUP3 CALLDATALOAD DUP3 MSTORE SWAP2 DUP4 ADD SWAP2 SWAP1 DUP4 ADD SWAP1 PUSH2 0x12D3 JUMP JUMPDEST SWAP8 SWAP7 POP POP POP POP POP POP POP JUMP JUMPDEST PUSH1 0x0 DUP1 PUSH1 0x0 DUP1 PUSH1 0x0 DUP1 PUSH1 0x0 DUP1 PUSH2 0x100 DUP10 DUP12 SUB SLT ISZERO PUSH2 0x1314 JUMPI PUSH1 0x0 DUP1 REVERT JUMPDEST DUP9 CALLDATALOAD SWAP8 POP PUSH1 0x20 DUP1 DUP11 ADD CALLDATALOAD PUSH8 0xFFFFFFFFFFFFFFFF DUP1 DUP3 GT ISZERO PUSH2 0x1334 JUMPI PUSH1 0x0 DUP1 REVERT JUMPDEST DUP2 DUP13 ADD SWAP2 POP DUP13 PUSH1 0x1F DUP4 ADD SLT PUSH2 0x1348 JUMPI PUSH1 0x0 DUP1 REVERT JUMPDEST DUP2 CALLDATALOAD DUP2 DUP2 GT ISZERO PUSH2 0x135A JUMPI PUSH2 0x135A PUSH2 0x1220 JUMP JUMPDEST PUSH2 0x136C PUSH1 0x1F DUP3 ADD PUSH1 0x1F NOT AND DUP6 ADD PUSH2 0x1236 JUMP JUMPDEST DUP2 DUP2 MSTORE DUP15 DUP6 DUP4 DUP7 ADD ADD GT ISZERO PUSH2 0x1380 JUMPI PUSH1 0x0 DUP1 REVERT JUMPDEST DUP2 DUP6 DUP6 ADD DUP7 DUP4 ADD CALLDATACOPY PUSH1 0x0 DUP6 DUP4 DUP4 ADD ADD MSTORE DUP1 SWAP12 POP POP POP PUSH2 0x13A1 PUSH1 0x40 DUP14 ADD PUSH2 0x1267 JUMP JUMPDEST SWAP9 POP PUSH1 0x60 DUP13 ADD CALLDATALOAD SWAP3 POP DUP1 DUP4 GT ISZERO PUSH2 0x13B7 JUMPI PUSH1 0x0 DUP1 REVERT JUMPDEST POP POP PUSH2 0x13C5 DUP12 DUP3 DUP13 ADD PUSH2 0x1277 JUMP JUMPDEST SWAP6 POP POP PUSH2 0x13D4 PUSH1 0x80 DUP11 ADD PUSH2 0x10D5 JUMP JUMPDEST SWAP4 POP PUSH2 0x13E2 PUSH1 0xA0 DUP11 ADD PUSH2 0x10D5 JUMP JUMPDEST SWAP3 POP PUSH2 0x13F0 PUSH1 0xC0 DUP11 ADD PUSH2 0x10D5 JUMP JUMPDEST SWAP2 POP PUSH2 0x13FE PUSH1 0xE0 DUP11 ADD PUSH2 0x10D5 JUMP JUMPDEST SWAP1 POP SWAP3 SWAP6 SWAP9 POP SWAP3 SWAP6 SWAP9 SWAP1 SWAP4 SWAP7 POP JUMP JUMPDEST PUSH1 0x0 DUP1 PUSH1 0x40 DUP4 DUP6 SUB SLT ISZERO PUSH2 0x1420 JUMPI PUSH1 0x0 DUP1 REVERT JUMPDEST PUSH2 0x1429 DUP4 PUSH2 0x10D5 JUMP JUMPDEST SWAP2 POP PUSH2 0x1437 PUSH1 0x20 DUP5 ADD PUSH2 0x1177 JUMP JUMPDEST SWAP1 POP SWAP3 POP SWAP3 SWAP1 POP JUMP JUMPDEST PUSH4 0x4E487B71 PUSH1 0xE0 SHL PUSH1 0x0 MSTORE PUSH1 0x32 PUSH1 0x4 MSTORE PUSH1 0x24 PUSH1 0x0 REVERT JUMPDEST PUSH4 0x4E487B71 PUSH1 0xE0 SHL PUSH1 0x0 MSTORE PUSH1 0x11 PUSH1 0x4 MSTORE PUSH1 0x24 PUSH1 0x0 REVERT JUMPDEST PUSH1 0x0 PUSH1 0xFF DUP3 AND PUSH1 0xFF DUP2 EQ ISZERO PUSH2 0x1483 JUMPI PUSH2 0x1483 PUSH2 0x1456 JUMP JUMPDEST PUSH1 0x1 ADD SWAP3 SWAP2 POP POP JUMP JUMPDEST PUSH1 0x0 PUSH4 0xFFFFFFFF DUP1 DUP4 AND DUP2 DUP2 EQ ISZERO PUSH2 0x14A6 JUMPI PUSH2 0x14A6 PUSH2 0x1456 JUMP JUMPDEST PUSH1 0x1 ADD SWAP4 SWAP3 POP POP POP JUMP JUMPDEST PUSH1 0x0 PUSH1 0xFF DUP3 AND PUSH1 0xFF DUP5 AND DUP1 PUSH1 0xFF SUB DUP3 GT ISZERO PUSH2 0x14CD JUMPI PUSH2 0x14CD PUSH2 0x1456 JUMP JUMPDEST ADD SWAP4 SWAP3 POP POP POP JUMP JUMPDEST PUSH1 0x0 PUSH2 0x100 DUP11 DUP4 MSTORE PUSH1 0x20 DUP2 DUP2 DUP6 ADD MSTORE DUP11 MLOAD DUP1 DUP4 DUP7 ADD MSTORE PUSH1 0x0 SWAP3 POP JUMPDEST DUP1 DUP4 LT ISZERO PUSH2 0x150F JUMPI DUP12 DUP4 ADD DUP3 ADD MLOAD DUP6 DUP5 ADD PUSH2 0x120 ADD MSTORE SWAP2 DUP2 ADD SWAP2 PUSH2 0x14F0 JUMP JUMPDEST DUP1 DUP4 GT ISZERO PUSH2 0x1522 JUMPI PUSH1 0x0 PUSH2 0x120 DUP3 DUP8 ADD ADD MSTORE JUMPDEST PUSH1 0x1F ADD PUSH1 0x1F NOT AND DUP5 ADD PUSH2 0x120 ADD SWAP3 POP PUSH2 0x1546 SWAP2 POP POP PUSH1 0x40 DUP4 ADD DUP10 PUSH4 0xFFFFFFFF AND SWAP1 MSTORE JUMP JUMPDEST SWAP6 ISZERO ISZERO PUSH1 0x60 DUP3 ADD MSTORE PUSH4 0xFFFFFFFF SWAP5 DUP6 AND PUSH1 0x80 DUP3 ADD MSTORE SWAP3 DUP5 AND PUSH1 0xA0 DUP5 ADD MSTORE SWAP1 DUP4 AND PUSH1 0xC0 DUP4 ADD MSTORE SWAP1 SWAP2 AND PUSH1 0xE0 SWAP1 SWAP2 ADD MSTORE SWAP4 SWAP3 POP POP POP JUMP JUMPDEST PUSH1 0x0 DUP3 NOT DUP3 GT ISZERO PUSH2 0x158E JUMPI PUSH2 0x158E PUSH2 0x1456 JUMP JUMPDEST POP ADD SWAP1 JUMP JUMPDEST PUSH1 0x0 DUP3 DUP3 LT ISZERO PUSH2 0x15A5 JUMPI PUSH2 0x15A5 PUSH2 0x1456 JUMP JUMPDEST POP SUB SWAP1 JUMP JUMPDEST PUSH1 0x1 DUP2 DUP2 SHR SWAP1 DUP3 AND DUP1 PUSH2 0x15BE JUMPI PUSH1 0x7F DUP3 AND SWAP2 POP JUMPDEST PUSH1 0x20 DUP3 LT DUP2 EQ ISZERO PUSH2 0x6DE JUMPI PUSH4 0x4E487B71 PUSH1 0xE0 SHL PUSH1 0x0 MSTORE PUSH1 0x22 PUSH1 0x4 MSTORE PUSH1 0x24 PUSH1 0x0 REVERT INVALID LOG2 PUSH5 0x6970667358 0x22 SLT KECCAK256 KECCAK256 SWAP14 ADDRESS 0xF6 0xC7 0x21 0x2C PUSH25 0xB23908D72283E9EDB01DA4F37CA81558B9F076781272845264 PUSH20 0x6F6C634300080C00330000000000000000000000 ",
  "sha1": "4958e0bcb884f09879e00ac304af8ac721f9bbee",
  "source": "// SPDX-License-Identifier: MIT\npragma solidity ^0.8.0;\n\ncontract SimpleElection {\n    //Structure of an election\n    struct Election {\n        bytes32 name;\n        string description;\n        uint32 id;\n        bool requireRegitration;\n        uint32 startElection;\n        uint32 endElection;\n        uint32 startRegistration;\n        uint32 endRegistration;\n    }\n\n    mapping(bytes32 => uint32) electionsIds; //list of current elections\n    uint32[] currentElections;\n\n    //Structure of candidate standing in an election\n    struct Candidate {\n        bytes32 name; //name of the proposal\n        uint256 voteCount; //votes received\n    }\n\n    //Structure of a voter\n    struct Voter {\n        uint256 weight; // weight is accumulated by delegation\n        bool voted; // if true, that person already voted\n    }\n\n    //Mapping of the elections\n    mapping(uint32 => Election) elections;\n\n    //Mappings of the proposals for every election\n    mapping(uint32 => mapping(uint8 => Candidate)) public candidates;\n\n    mapping(uint32 => mapping(bytes32 => uint8)) public candidatesIds;\n\n    //List of the proposal for every election\n    mapping(uint32 => uint8[]) public candidatesList;\n\n    //Mapping of the voters for every election\n    mapping(uint32 => mapping(address => Voter)) public voters;\n\n    //A nonce to assign the id to the elections\n    uint32 electionNonce = 1;\n    uint32 electionCount = 1;\n\n    event ElectionCreated(\n        bytes32 name,\n        string description,\n        uint256 electionId,\n        bool requireRegitration,\n        uint32 startElection,\n        uint32 endElection,\n        uint32 startRegistration,\n        uint32 endRegistration\n    );\n    event Voted(\n        uint32 electionId,\n        address voter,\n        uint8 _candidateId,\n        uint256 _weight\n    );\n\n    //A function that creates an election structure.\n    function createElection(\n        bytes32 _name, //name of the election\n        string memory _description, //a description\n        bool _requireRegitration, //true if is required a registration\n        bytes32[] memory _candidates, //the list of proposals\n        uint32 _startElection, //date of the begin of the election period\n        uint32 _endElection, //date of the end of the election period\n        uint32 _startRegistration, //date of the begin of the registration period\n        uint32 _endRegistration //date of the end of the registration period\n    ) public {\n        require(_candidates.length > 0, \"There should be atleast 1 candidate.\");\n\n        require(\n            !electionExists(_name),\n            \"This election already exists, please select other name\"\n        );\n        uint32 electionId = electionNonce;\n        elections[electionId] = Election(\n            _name,\n            _description,\n            electionId,\n            _requireRegitration,\n            _startElection,\n            _endElection,\n            _startRegistration,\n            _endRegistration\n        );\n        electionsIds[_name] = electionId;\n        currentElections.push(electionId);\n\n        for (uint8 i = 0; i < _candidates.length; i++) {\n            addCandidate(electionId, _candidates[i], i + 1);\n        }\n        emit ElectionCreated(\n            _name,\n            _description,\n            electionId,\n            _requireRegitration,\n            _startElection,\n            _endElection,\n            _startRegistration,\n            _endRegistration\n        );\n        electionNonce++;\n        electionCount++;\n    }\n\n    //Private function to add a candidate\n    function addCandidate(\n        uint32 _electionId,\n        bytes32 _candidateName,\n        uint8 _candidateId\n    ) private {\n        candidates[_electionId][_candidateId] = Candidate(_candidateName, 0);\n        candidatesIds[_electionId][_candidateName] = _candidateId;\n        candidatesList[_electionId].push(_candidateId);\n    }\n\n    //Private vote function for voting a candidate\n    function voterVote(\n        uint32 _electionId, //the election in which vote\n        address _voter, //the voter\n        uint8 _candidateId, //the proposal to vote\n        uint256 _weight //\"how many times\" vote\n    ) private {\n        require(electionExists(_electionId), \"The election doesn't exist\");\n        require(checkElectionOpen(_electionId), \"The election is closed\");\n        if (elections[_electionId].requireRegitration) {\n            require(\n                voterHasRegistred(_electionId, _voter),\n                \"Voter hasn't registered\"\n            );\n        } else {\n            registerVoter(_electionId, _voter);\n        }\n        require(\n            !voterHasVoted(_electionId, _voter),\n            \"Voter has already Voted!\"\n        );\n        require(\n            _weight <= voters[_electionId][_voter].weight,\n            \"Voter do not have so many votes\"\n        );\n        require(\n            candidateExists(_electionId, _candidateId),\n            \"Invalid candidate to Vote!\"\n        );\n\n        //update the vote count of the voted proposal\n        candidates[_electionId][_candidateId].voteCount =\n            candidates[_electionId][_candidateId].voteCount +\n            _weight;\n\n        //subtract the votes to the voter Structure\n        voters[_electionId][_voter].weight =\n            voters[_electionId][_voter].weight -\n            _weight;\n\n        //set the variable voted to true if the voter does not have other votes\n        if (voters[_electionId][_voter].weight == 0) {\n            voters[_electionId][_voter].voted = true;\n        }\n\n        emit Voted(_electionId, _voter, _candidateId, _weight);\n    }\n\n    //Public function to vote\n    function vote(\n        uint32 _electionId, //the election in which vote\n        uint8 _candidateId, //the proposal to vote\n        uint256 _weight //\"how many times\" vote\n    ) public {\n        voterVote(_electionId, msg.sender, _candidateId, _weight);\n    }\n\n    //get list of elections\n    function getCurrentElections() public view returns (bytes32[] memory) {\n        bytes32[] memory result = new bytes32[](currentElections.length);\n        for (uint32 i = 0; i < currentElections.length; i++) {\n            result[i] = elections[currentElections[i]].name;\n        }\n        return result;\n    }\n\n    //get list of proposal of an election\n    function getCandidatesForElection(uint32 _electionId)\n        public\n        view\n        returns (bytes32[] memory)\n    {\n        require(electionExists(_electionId), \"The election doesn't exist\");\n        bytes32[] memory result = new bytes32[](\n            candidatesList[_electionId].length\n        );\n        for (uint8 i = 0; i < candidatesList[_electionId].length; i++)\n            result[i] = candidates[_electionId][candidatesList[_electionId][i]]\n                .name;\n        return result;\n    }\n\n    //register for an election\n    function registerVoter(uint32 _electionId, address voter) private {\n        voters[_electionId][voter].weight = 1;\n    }\n\n    function register(uint32 _electionId) public {\n        require(checkRegistrationOpen(_electionId), \"Registration not open\");\n        registerVoter(_electionId, msg.sender);\n    }\n\n    function checkRegistrationOpen(uint32 _electionId)\n        public\n        view\n        returns (bool)\n    {\n        return ((elections[_electionId].startRegistration <= block.timestamp) &&\n            (elections[_electionId].endRegistration >= block.timestamp));\n    }\n\n    function checkElectionOpen(uint32 _electionId) public view returns (bool) {\n        return ((elections[_electionId].startElection <= block.timestamp) &&\n            (elections[_electionId].endElection >= block.timestamp));\n    }\n\n    function voterHasRegistred(uint32 _electionId, address voter)\n        public\n        view\n        returns (bool)\n    {\n        return ((voters[_electionId][voter].weight != 0) ||\n            (voters[_electionId][voter].voted == true));\n    }\n\n    function voterHasVoted(uint32 _electionId, address voter)\n        public\n        view\n        returns (bool)\n    {\n        return voters[_electionId][voter].voted;\n    }\n\n    function electionExists(bytes32 _electionName) public view returns (bool) {\n        return electionsIds[_electionName] != 0;\n    }\n\n    function electionExists(uint32 _electionId) public view returns (bool) {\n        return elections[_electionId].id != 0;\n    }\n\n    function candidateExists(uint32 _electionId, uint8 _candidateId)\n        public\n        view\n        returns (bool)\n    {\n        return (candidates[_electionId][_candidateId].name != 0);\n    }\n}\n",
  "sourcePath": "contracts/SimpleElection.sol",
  "type": "contract"
}