{
  "abi": [
    {
      "inputs": [],
      "stateMutability": "nonpayable",
      "type": "constructor"
    },
    {
      "anonymous": false,
      "inputs": [
        {
          "indexed": false,
          "internalType": "bytes32",
          "name": "name",
          "type": "bytes32"
        },
        {
          "indexed": false,
          "internalType": "string",
          "name": "description",
          "type": "string"
        },
        {
          "indexed": false,
          "internalType": "uint256",
          "name": "electionId",
          "type": "uint256"
        },
        {
          "indexed": false,
          "internalType": "bool",
          "name": "requireRegitration",
          "type": "bool"
        },
        {
          "indexed": false,
          "internalType": "uint32",
          "name": "startElection",
          "type": "uint32"
        },
        {
          "indexed": false,
          "internalType": "uint32",
          "name": "endElection",
          "type": "uint32"
        },
        {
          "indexed": false,
          "internalType": "uint32",
          "name": "startRegistration",
          "type": "uint32"
        },
        {
          "indexed": false,
          "internalType": "uint32",
          "name": "endRegistration",
          "type": "uint32"
        }
      ],
      "name": "ElectionCreated",
      "type": "event"
    },
    {
      "anonymous": false,
      "inputs": [
        {
          "indexed": false,
          "internalType": "uint32",
          "name": "electionId",
          "type": "uint32"
        },
        {
          "indexed": false,
          "internalType": "address",
          "name": "voter",
          "type": "address"
        },
        {
          "indexed": false,
          "internalType": "uint8",
          "name": "_candidateId",
          "type": "uint8"
        },
        {
          "indexed": false,
          "internalType": "uint256",
          "name": "_weight",
          "type": "uint256"
        }
      ],
      "name": "Voted",
      "type": "event"
    },
    {
      "inputs": [
        {
          "internalType": "uint32",
          "name": "_electionId",
          "type": "uint32"
        },
        {
          "internalType": "uint8",
          "name": "_candidateId",
          "type": "uint8"
        }
      ],
      "name": "candidateExists",
      "outputs": [
        {
          "internalType": "bool",
          "name": "",
          "type": "bool"
        }
      ],
      "stateMutability": "view",
      "type": "function"
    },
    {
      "inputs": [
        {
          "internalType": "uint32",
          "name": "",
          "type": "uint32"
        },
        {
          "internalType": "uint8",
          "name": "",
          "type": "uint8"
        }
      ],
      "name": "candidates",
      "outputs": [
        {
          "internalType": "bytes32",
          "name": "name",
          "type": "bytes32"
        },
        {
          "internalType": "uint256",
          "name": "voteCount",
          "type": "uint256"
        }
      ],
      "stateMutability": "view",
      "type": "function"
    },
    {
      "inputs": [
        {
          "internalType": "uint32",
          "name": "",
          "type": "uint32"
        },
        {
          "internalType": "bytes32",
          "name": "",
          "type": "bytes32"
        }
      ],
      "name": "candidatesIds",
      "outputs": [
        {
          "internalType": "uint8",
          "name": "",
          "type": "uint8"
        }
      ],
      "stateMutability": "view",
      "type": "function"
    },
    {
      "inputs": [
        {
          "internalType": "uint32",
          "name": "",
          "type": "uint32"
        },
        {
          "internalType": "uint256",
          "name": "",
          "type": "uint256"
        }
      ],
      "name": "candidatesList",
      "outputs": [
        {
          "internalType": "uint8",
          "name": "",
          "type": "uint8"
        }
      ],
      "stateMutability": "view",
      "type": "function"
    },
    {
      "inputs": [
        {
          "internalType": "uint32",
          "name": "_electionId",
          "type": "uint32"
        }
      ],
      "name": "checkElectionOpen",
      "outputs": [
        {
          "internalType": "bool",
          "name": "",
          "type": "bool"
        }
      ],
      "stateMutability": "view",
      "type": "function"
    },
    {
      "inputs": [
        {
          "internalType": "uint32",
          "name": "_electionId",
          "type": "uint32"
        }
      ],
      "name": "checkRegistrationOpen",
      "outputs": [
        {
          "internalType": "bool",
          "name": "",
          "type": "bool"
        }
      ],
      "stateMutability": "view",
      "type": "function"
    },
    {
      "inputs": [
        {
          "internalType": "bytes32",
          "name": "_name",
          "type": "bytes32"
        },
        {
          "internalType": "string",
          "name": "_description",
          "type": "string"
        },
        {
          "internalType": "bool",
          "name": "_requireRegitration",
          "type": "bool"
        },
        {
          "internalType": "bytes32[]",
          "name": "_candidates",
          "type": "bytes32[]"
        },
        {
          "internalType": "uint32",
          "name": "_startElection",
          "type": "uint32"
        },
        {
          "internalType": "uint32",
          "name": "_endElection",
          "type": "uint32"
        },
        {
          "internalType": "uint32",
          "name": "_startRegistration",
          "type": "uint32"
        },
        {
          "internalType": "uint32",
          "name": "_endRegistration",
          "type": "uint32"
        }
      ],
      "name": "createElection",
      "outputs": [],
      "stateMutability": "nonpayable",
      "type": "function"
    },
    {
      "inputs": [
        {
          "internalType": "uint32",
          "name": "_electionId",
          "type": "uint32"
        }
      ],
      "name": "electionExists",
      "outputs": [
        {
          "internalType": "bool",
          "name": "",
          "type": "bool"
        }
      ],
      "stateMutability": "view",
      "type": "function"
    },
    {
      "inputs": [
        {
          "internalType": "bytes32",
          "name": "_electionName",
          "type": "bytes32"
        }
      ],
      "name": "electionExists",
      "outputs": [
        {
          "internalType": "bool",
          "name": "",
          "type": "bool"
        }
      ],
      "stateMutability": "view",
      "type": "function"
    },
    {
      "inputs": [
        {
          "internalType": "uint32",
          "name": "_electionId",
          "type": "uint32"
        },
        {
          "internalType": "bytes32",
          "name": "_candidatename",
          "type": "bytes32"
        }
      ],
      "name": "getCandidateId",
      "outputs": [
        {
          "internalType": "uint8",
          "name": "",
          "type": "uint8"
        }
      ],
      "stateMutability": "view",
      "type": "function"
    },
    {
      "inputs": [
        {
          "internalType": "uint32",
          "name": "_electionId",
          "type": "uint32"
        }
      ],
      "name": "getCandidatesForElection",
      "outputs": [
        {
          "internalType": "bytes32[]",
          "name": "",
          "type": "bytes32[]"
        }
      ],
      "stateMutability": "view",
      "type": "function"
    },
    {
      "inputs": [],
      "name": "getCurrentElections",
      "outputs": [
        {
          "internalType": "bytes32[]",
          "name": "",
          "type": "bytes32[]"
        }
      ],
      "stateMutability": "view",
      "type": "function"
    },
    {
      "inputs": [
        {
          "internalType": "uint32",
          "name": "_electionId",
          "type": "uint32"
        }
      ],
      "name": "register",
      "outputs": [],
      "stateMutability": "nonpayable",
      "type": "function"
    },
    {
      "inputs": [
        {
          "internalType": "uint32",
          "name": "_electionId",
          "type": "uint32"
        },
        {
          "internalType": "uint8",
          "name": "_candidateId",
          "type": "uint8"
        },
        {
          "internalType": "uint256",
          "name": "_weight",
          "type": "uint256"
        }
      ],
      "name": "vote",
      "outputs": [],
      "stateMutability": "nonpayable",
      "type": "function"
    },
    {
      "inputs": [
        {
          "internalType": "uint32",
          "name": "_electionId",
          "type": "uint32"
        },
        {
          "internalType": "address",
          "name": "voter",
          "type": "address"
        }
      ],
      "name": "voterHasRegistred",
      "outputs": [
        {
          "internalType": "bool",
          "name": "",
          "type": "bool"
        }
      ],
      "stateMutability": "view",
      "type": "function"
    },
    {
      "inputs": [
        {
          "internalType": "uint32",
          "name": "_electionId",
          "type": "uint32"
        },
        {
          "internalType": "address",
          "name": "voter",
          "type": "address"
        }
      ],
      "name": "voterHasVoted",
      "outputs": [
        {
          "internalType": "bool",
          "name": "",
          "type": "bool"
        }
      ],
      "stateMutability": "view",
      "type": "function"
    },
    {
      "inputs": [
        {
          "internalType": "uint32",
          "name": "",
          "type": "uint32"
        },
        {
          "internalType": "address",
          "name": "",
          "type": "address"
        }
      ],
      "name": "voters",
      "outputs": [
        {
          "internalType": "uint256",
          "name": "weight",
          "type": "uint256"
        },
        {
          "internalType": "bool",
          "name": "voted",
          "type": "bool"
        }
      ],
      "stateMutability": "view",
      "type": "function"
    }
  ],
  "bytecode": "608060405234801561001057600080fd5b50600780546001600160401b031916640100000001179055611656806100376000396000f3fe608060405234801561001057600080fd5b506004361061010b5760003560e01c80638553e12d116100a2578063901ab94d11610071578063901ab94d1461028e578063b957e109146102d5578063d66e33ca1461030f578063e0d7c7cc14610353578063edfbf9b01461036657600080fd5b80638553e12d1461021f57806389b0bf991461023257806389f67182146102685780638bc31c841461027b57600080fd5b80633f8c13f0116100de5780633f8c13f0146101c95780635b4206c4146101dc5780637133a501146101ef5780637349746b146101f757600080fd5b8063028ff9f314610110578063130d790614610155578063320d05731461016a5780633ec4f362146101a9575b600080fd5b61013e61011e36600461112f565b600460209081526000928352604080842090915290825290205460ff1681565b60405160ff90911681526020015b60405180910390f35b610168610163366004611159565b6103b0565b005b610199610178366004611159565b63ffffffff9081166000908152600260208190526040909120015416151590565b604051901515815260200161014c565b6101bc6101b7366004611159565b610427565b60405161014c9190611174565b6101996101d7366004611159565b6105b7565b6101686101ea3660046111c9565b610618565b6101bc610629565b610199610205366004611205565b60009081526020819052604090205463ffffffff16151590565b61019961022d36600461121e565b610725565b61013e61024036600461112f565b63ffffffff919091166000908152600460209081526040808320938352929052205460ff1690565b61013e61027636600461112f565b610794565b610168610289366004611338565b6107d7565b6102c061029c36600461144e565b60036020908152600092835260408084209091529082529020805460019091015482565b6040805192835260208301919091520161014c565b6101996102e336600461144e565b63ffffffff8216600090815260036020908152604080832060ff85168452909152902054151592915050565b61019961031d36600461121e565b63ffffffff821660009081526006602090815260408083206001600160a01b038516845290915290206001015460ff1692915050565b610199610361366004611159565b610c09565b61039b61037436600461121e565b60066020908152600092835260408084209091529082529020805460019091015460ff1682565b6040805192835290151560208301520161014c565b6103b981610c09565b6104025760405162461bcd60e51b81526020600482015260156024820152742932b3b4b9ba3930ba34b7b7103737ba1037b832b760591b60448201526064015b60405180910390fd5b63ffffffff166000908152600660209081526040808320338452909152902060019055565b63ffffffff80821660009081526002602081905260409091200154606091166104925760405162461bcd60e51b815260206004820152601a60248201527f54686520656c656374696f6e20646f65736e277420657869737400000000000060448201526064016103f9565b63ffffffff821660009081526005602052604081205467ffffffffffffffff8111156104c0576104c0611261565b6040519080825280602002602001820160405280156104e9578160200160208202803683370190505b50905060005b63ffffffff841660009081526005602052604090205460ff821610156105b05763ffffffff8416600090815260036020908152604080832060059092528220805491929160ff851690811061054657610546611481565b90600052602060002090602091828204019190069054906101000a900460ff1660ff1660ff16815260200190815260200160002060000154828260ff168151811061059357610593611481565b6020908102919091010152806105a8816114ad565b9150506104ef565b5092915050565b63ffffffff808216600090815260026020819052604082200154909142650100000000009092041611801590610612575063ffffffff8083166000908152600260208190526040909120015442600160481b90910490911610155b92915050565b61062483338484610c65565b505050565b60015460609060009067ffffffffffffffff81111561064a5761064a611261565b604051908082528060200260200182016040528015610673578160200160208202803683370190505b50905060005b60015463ffffffff8216101561071f576002600060018363ffffffff16815481106106a6576106a6611481565b90600052602060002090600891828204019190066004029054906101000a900463ffffffff1663ffffffff1663ffffffff16815260200190815260200160002060000154828263ffffffff168151811061070257610702611481565b602090810291909101015280610717816114cd565b915050610679565b50919050565b63ffffffff821660009081526006602090815260408083206001600160a01b038516845290915281205415158061078d575063ffffffff831660009081526006602090815260408083206001600160a01b0386168452909152902060019081015460ff161515145b9392505050565b600560205281600052604060002081815481106107b057600080fd5b9060005260206000209060209182820401919006915091509054906101000a900460ff1681565b60008551116108345760405162461bcd60e51b8152602060048201526024808201527f54686572652073686f756c642062652061746c6561737420312063616e64696460448201526330ba329760e11b60648201526084016103f9565b60008881526020819052604090205463ffffffff16156108b55760405162461bcd60e51b815260206004820152603660248201527f5468697320656c656374696f6e20616c7265616479206578697374732c20706c604482015275656173652073656c656374206f74686572206e616d6560501b60648201526084016103f9565b60075460408051610100810182528a815260208082018b815263ffffffff9485168385018190528b15156060850152898616608085015288861660a085015287861660c085015294861660e084015260008581526002835293909320825181559251805192939261092c926001850192019061107d565b50604082810151600290920180546060850151608086015160a087015160c088015160e09098015163ffffffff908116600160881b0263ffffffff60881b19998216600160681b029990991667ffffffffffffffff60681b19928216600160481b026cffffffff000000000000000000199483166501000000000002949094166cffffffffffffffff0000000000199515156401000000000264ffffffffff19909716998316999099179590951793909316969096171794909416179390931790925560008b81526020819052918220805484831663ffffffff19919091168117909155600180548082018255908452600881047fb10e2d527612073b26eecdfd717e6a320cf44b4afac2b0732d9fcbe2b7fa0cf601805460079092166004026101000a9283029290930219161790555b86518160ff161015610b4257610b3082888360ff1681518110610a8257610a82611481565b6020026020010151836001610a9791906114f1565b6040805180820182528381526000602080830182815263ffffffff979097168083526003825284832060ff96871680855290835285842094518555975160019485015580835260048252848320968352958152838220805460ff19168817905594815260058552918220805491820181558252908390209281049092018054601f9093166101000a918202199092169202919091179055565b80610b3a816114ad565b915050610a5d565b507f8c22f42e1642c0f410bc4e3debf771a1355ec556bdaf3ce7428e555196569c968989838a89898989604051610b80989796959493929190611516565b60405180910390a16007805463ffffffff16906000610b9e836114cd565b91906101000a81548163ffffffff021916908363ffffffff160217905550506007600481819054906101000a900463ffffffff1680929190610bdf906114cd565b91906101000a81548163ffffffff021916908363ffffffff16021790555050505050505050505050565b63ffffffff808216600090815260026020819052604082200154909142600160681b909204161180159061061257505063ffffffff9081166000908152600260208190526040909120015442600160881b909104909116101590565b63ffffffff8085166000908152600260208190526040909120015416610ccd5760405162461bcd60e51b815260206004820152601a60248201527f54686520656c656374696f6e20646f65736e277420657869737400000000000060448201526064016103f9565b610cd6846105b7565b610d1b5760405162461bcd60e51b8152602060048201526016602482015275151a1948195b1958dd1a5bdb881a5cc818db1bdcd95960521b60448201526064016103f9565b63ffffffff841660009081526002602081905260409091200154640100000000900460ff1615610da057610d4f8484610725565b610d9b5760405162461bcd60e51b815260206004820152601760248201527f566f746572206861736e2774207265676973746572656400000000000000000060448201526064016103f9565b610dce565b63ffffffff841660009081526006602090815260408083206001600160a01b03871684529091529020600190555b63ffffffff841660009081526006602090815260408083206001600160a01b038716845290915290206001015460ff1615610e4b5760405162461bcd60e51b815260206004820152601860248201527f566f7465722068617320616c726561647920566f74656421000000000000000060448201526064016103f9565b63ffffffff841660009081526006602090815260408083206001600160a01b0387168452909152902054811115610ec45760405162461bcd60e51b815260206004820152601f60248201527f566f74657220646f206e6f74206861766520736f206d616e7920766f7465730060448201526064016103f9565b63ffffffff8416600090815260036020908152604080832060ff86168452909152902054610f345760405162461bcd60e51b815260206004820152601a60248201527f496e76616c69642063616e64696461746520746f20566f74652100000000000060448201526064016103f9565b63ffffffff8416600090815260036020908152604080832060ff86168452909152902060010154610f669082906115bc565b63ffffffff8516600081815260036020908152604080832060ff88168452825280832060010194909455918152600682528281206001600160a01b03871682529091522054610fb69082906115d4565b63ffffffff851660009081526006602090815260408083206001600160a01b038816845290915290208190556110205763ffffffff841660009081526006602090815260408083206001600160a01b038716845290915290206001908101805460ff191690911790555b6040805163ffffffff861681526001600160a01b038516602082015260ff8416818301526060810183905290517f66eb9354084da3c9417bfaeb0f63de26c8976282f67e1687af5b90e8d3fbd3879181900360800190a150505050565b828054611089906115eb565b90600052602060002090601f0160209004810192826110ab57600085556110f1565b82601f106110c457805160ff19168380011785556110f1565b828001600101855582156110f1579182015b828111156110f15782518255916020019190600101906110d6565b506110fd929150611101565b5090565b5b808211156110fd5760008155600101611102565b803563ffffffff8116811461112a57600080fd5b919050565b6000806040838503121561114257600080fd5b61114b83611116565b946020939093013593505050565b60006020828403121561116b57600080fd5b61078d82611116565b6020808252825182820181905260009190848201906040850190845b818110156111ac57835183529284019291840191600101611190565b50909695505050505050565b803560ff8116811461112a57600080fd5b6000806000606084860312156111de57600080fd5b6111e784611116565b92506111f5602085016111b8565b9150604084013590509250925092565b60006020828403121561121757600080fd5b5035919050565b6000806040838503121561123157600080fd5b61123a83611116565b915060208301356001600160a01b038116811461125657600080fd5b809150509250929050565b634e487b7160e01b600052604160045260246000fd5b604051601f8201601f1916810167ffffffffffffffff811182821017156112a0576112a0611261565b604052919050565b8035801515811461112a57600080fd5b600082601f8301126112c957600080fd5b8135602067ffffffffffffffff8211156112e5576112e5611261565b8160051b6112f4828201611277565b928352848101820192828101908785111561130e57600080fd5b83870192505b8483101561132d57823582529183019190830190611314565b979650505050505050565b600080600080600080600080610100898b03121561135557600080fd5b883597506020808a013567ffffffffffffffff8082111561137557600080fd5b818c0191508c601f83011261138957600080fd5b81358181111561139b5761139b611261565b6113ad601f8201601f19168501611277565b8181528e858386010111156113c157600080fd5b81858501868301376000858383010152809b5050506113e260408d016112a8565b985060608c01359250808311156113f857600080fd5b50506114068b828c016112b8565b95505061141560808a01611116565b935061142360a08a01611116565b925061143160c08a01611116565b915061143f60e08a01611116565b90509295985092959890939650565b6000806040838503121561146157600080fd5b61146a83611116565b9150611478602084016111b8565b90509250929050565b634e487b7160e01b600052603260045260246000fd5b634e487b7160e01b600052601160045260246000fd5b600060ff821660ff8114156114c4576114c4611497565b60010192915050565b600063ffffffff808316818114156114e7576114e7611497565b6001019392505050565b600060ff821660ff84168060ff0382111561150e5761150e611497565b019392505050565b60006101008a8352602081818501528a518083860152600092505b80831015611550578b8301820151858401610120015291810191611531565b8083111561156357600061012082870101525b601f01601f19168401610120019250611587915050604083018963ffffffff169052565b951515606082015263ffffffff948516608082015292841660a084015290831660c083015290911660e0909101529392505050565b600082198211156115cf576115cf611497565b500190565b6000828210156115e6576115e6611497565b500390565b600181811c908216806115ff57607f821691505b6020821081141561071f57634e487b7160e01b600052602260045260246000fdfea2646970667358221220302bf866eb3794d4cde5ba3c5a5c4d9c3f0908afe9456d85f3116bec27c2bb8564736f6c634300080c0033",
  "bytecodeSha1": "0305becaf442a113b04cb796c8f243c5507bd153",
  "compiler": {
    "evm_version": "istanbul",
    "optimizer": {
      "enabled": true,
      "runs": 200
    },
    "version": "0.8.12+commit.f00d7308"
  },
  "contractName": "SimpleElection",
  "language": "Solidity",
  "natspec": {
    "kind": "dev",
    "methods": {},
    "version": 1
  },
  "opcodes": "PUSH1 0x80 PUSH1 0x40 MSTORE CALLVALUE DUP1 ISZERO PUSH2 0x10 JUMPI PUSH1 0x0 DUP1 REVERT JUMPDEST POP PUSH1 0x4 CALLDATASIZE LT PUSH2 0x10B JUMPI PUSH1 0x0 CALLDATALOAD PUSH1 0xE0 SHR DUP1 PUSH4 0x8553E12D GT PUSH2 0xA2 JUMPI DUP1 PUSH4 0x901AB94D GT PUSH2 0x71 JUMPI DUP1 PUSH4 0x901AB94D EQ PUSH2 0x28E JUMPI DUP1 PUSH4 0xB957E109 EQ PUSH2 0x2D5 JUMPI DUP1 PUSH4 0xD66E33CA EQ PUSH2 0x30F JUMPI DUP1 PUSH4 0xE0D7C7CC EQ PUSH2 0x353 JUMPI DUP1 PUSH4 0xEDFBF9B0 EQ PUSH2 0x366 JUMPI PUSH1 0x0 DUP1 REVERT JUMPDEST DUP1 PUSH4 0x8553E12D EQ PUSH2 0x21F JUMPI DUP1 PUSH4 0x89B0BF99 EQ PUSH2 0x232 JUMPI DUP1 PUSH4 0x89F67182 EQ PUSH2 0x268 JUMPI DUP1 PUSH4 0x8BC31C84 EQ PUSH2 0x27B JUMPI PUSH1 0x0 DUP1 REVERT JUMPDEST DUP1 PUSH4 0x3F8C13F0 GT PUSH2 0xDE JUMPI DUP1 PUSH4 0x3F8C13F0 EQ PUSH2 0x1C9 JUMPI DUP1 PUSH4 0x5B4206C4 EQ PUSH2 0x1DC JUMPI DUP1 PUSH4 0x7133A501 EQ PUSH2 0x1EF JUMPI DUP1 PUSH4 0x7349746B EQ PUSH2 0x1F7 JUMPI PUSH1 0x0 DUP1 REVERT JUMPDEST DUP1 PUSH4 0x28FF9F3 EQ PUSH2 0x110 JUMPI DUP1 PUSH4 0x130D7906 EQ PUSH2 0x155 JUMPI DUP1 PUSH4 0x320D0573 EQ PUSH2 0x16A JUMPI DUP1 PUSH4 0x3EC4F362 EQ PUSH2 0x1A9 JUMPI JUMPDEST PUSH1 0x0 DUP1 REVERT JUMPDEST PUSH2 0x13E PUSH2 0x11E CALLDATASIZE PUSH1 0x4 PUSH2 0x112F JUMP JUMPDEST PUSH1 0x4 PUSH1 0x20 SWAP1 DUP2 MSTORE PUSH1 0x0 SWAP3 DUP4 MSTORE PUSH1 0x40 DUP1 DUP5 KECCAK256 SWAP1 SWAP2 MSTORE SWAP1 DUP3 MSTORE SWAP1 KECCAK256 SLOAD PUSH1 0xFF AND DUP2 JUMP JUMPDEST PUSH1 0x40 MLOAD PUSH1 0xFF SWAP1 SWAP2 AND DUP2 MSTORE PUSH1 0x20 ADD JUMPDEST PUSH1 0x40 MLOAD DUP1 SWAP2 SUB SWAP1 RETURN JUMPDEST PUSH2 0x168 PUSH2 0x163 CALLDATASIZE PUSH1 0x4 PUSH2 0x1159 JUMP JUMPDEST PUSH2 0x3B0 JUMP JUMPDEST STOP JUMPDEST PUSH2 0x199 PUSH2 0x178 CALLDATASIZE PUSH1 0x4 PUSH2 0x1159 JUMP JUMPDEST PUSH4 0xFFFFFFFF SWAP1 DUP2 AND PUSH1 0x0 SWAP1 DUP2 MSTORE PUSH1 0x2 PUSH1 0x20 DUP2 SWAP1 MSTORE PUSH1 0x40 SWAP1 SWAP2 KECCAK256 ADD SLOAD AND ISZERO ISZERO SWAP1 JUMP JUMPDEST PUSH1 0x40 MLOAD SWAP1 ISZERO ISZERO DUP2 MSTORE PUSH1 0x20 ADD PUSH2 0x14C JUMP JUMPDEST PUSH2 0x1BC PUSH2 0x1B7 CALLDATASIZE PUSH1 0x4 PUSH2 0x1159 JUMP JUMPDEST PUSH2 0x427 JUMP JUMPDEST PUSH1 0x40 MLOAD PUSH2 0x14C SWAP2 SWAP1 PUSH2 0x1174 JUMP JUMPDEST PUSH2 0x199 PUSH2 0x1D7 CALLDATASIZE PUSH1 0x4 PUSH2 0x1159 JUMP JUMPDEST PUSH2 0x5B7 JUMP JUMPDEST PUSH2 0x168 PUSH2 0x1EA CALLDATASIZE PUSH1 0x4 PUSH2 0x11C9 JUMP JUMPDEST PUSH2 0x618 JUMP JUMPDEST PUSH2 0x1BC PUSH2 0x629 JUMP JUMPDEST PUSH2 0x199 PUSH2 0x205 CALLDATASIZE PUSH1 0x4 PUSH2 0x1205 JUMP JUMPDEST PUSH1 0x0 SWAP1 DUP2 MSTORE PUSH1 0x20 DUP2 SWAP1 MSTORE PUSH1 0x40 SWAP1 KECCAK256 SLOAD PUSH4 0xFFFFFFFF AND ISZERO ISZERO SWAP1 JUMP JUMPDEST PUSH2 0x199 PUSH2 0x22D CALLDATASIZE PUSH1 0x4 PUSH2 0x121E JUMP JUMPDEST PUSH2 0x725 JUMP JUMPDEST PUSH2 0x13E PUSH2 0x240 CALLDATASIZE PUSH1 0x4 PUSH2 0x112F JUMP JUMPDEST PUSH4 0xFFFFFFFF SWAP2 SWAP1 SWAP2 AND PUSH1 0x0 SWAP1 DUP2 MSTORE PUSH1 0x4 PUSH1 0x20 SWAP1 DUP2 MSTORE PUSH1 0x40 DUP1 DUP4 KECCAK256 SWAP4 DUP4 MSTORE SWAP3 SWAP1 MSTORE KECCAK256 SLOAD PUSH1 0xFF AND SWAP1 JUMP JUMPDEST PUSH2 0x13E PUSH2 0x276 CALLDATASIZE PUSH1 0x4 PUSH2 0x112F JUMP JUMPDEST PUSH2 0x794 JUMP JUMPDEST PUSH2 0x168 PUSH2 0x289 CALLDATASIZE PUSH1 0x4 PUSH2 0x1338 JUMP JUMPDEST PUSH2 0x7D7 JUMP JUMPDEST PUSH2 0x2C0 PUSH2 0x29C CALLDATASIZE PUSH1 0x4 PUSH2 0x144E JUMP JUMPDEST PUSH1 0x3 PUSH1 0x20 SWAP1 DUP2 MSTORE PUSH1 0x0 SWAP3 DUP4 MSTORE PUSH1 0x40 DUP1 DUP5 KECCAK256 SWAP1 SWAP2 MSTORE SWAP1 DUP3 MSTORE SWAP1 KECCAK256 DUP1 SLOAD PUSH1 0x1 SWAP1 SWAP2 ADD SLOAD DUP3 JUMP JUMPDEST PUSH1 0x40 DUP1 MLOAD SWAP3 DUP4 MSTORE PUSH1 0x20 DUP4 ADD SWAP2 SWAP1 SWAP2 MSTORE ADD PUSH2 0x14C JUMP JUMPDEST PUSH2 0x199 PUSH2 0x2E3 CALLDATASIZE PUSH1 0x4 PUSH2 0x144E JUMP JUMPDEST PUSH4 0xFFFFFFFF DUP3 AND PUSH1 0x0 SWAP1 DUP2 MSTORE PUSH1 0x3 PUSH1 0x20 SWAP1 DUP2 MSTORE PUSH1 0x40 DUP1 DUP4 KECCAK256 PUSH1 0xFF DUP6 AND DUP5 MSTORE SWAP1 SWAP2 MSTORE SWAP1 KECCAK256 SLOAD ISZERO ISZERO SWAP3 SWAP2 POP POP JUMP JUMPDEST PUSH2 0x199 PUSH2 0x31D CALLDATASIZE PUSH1 0x4 PUSH2 0x121E JUMP JUMPDEST PUSH4 0xFFFFFFFF DUP3 AND PUSH1 0x0 SWAP1 DUP2 MSTORE PUSH1 0x6 PUSH1 0x20 SWAP1 DUP2 MSTORE PUSH1 0x40 DUP1 DUP4 KECCAK256 PUSH1 0x1 PUSH1 0x1 PUSH1 0xA0 SHL SUB DUP6 AND DUP5 MSTORE SWAP1 SWAP2 MSTORE SWAP1 KECCAK256 PUSH1 0x1 ADD SLOAD PUSH1 0xFF AND SWAP3 SWAP2 POP POP JUMP JUMPDEST PUSH2 0x199 PUSH2 0x361 CALLDATASIZE PUSH1 0x4 PUSH2 0x1159 JUMP JUMPDEST PUSH2 0xC09 JUMP JUMPDEST PUSH2 0x39B PUSH2 0x374 CALLDATASIZE PUSH1 0x4 PUSH2 0x121E JUMP JUMPDEST PUSH1 0x6 PUSH1 0x20 SWAP1 DUP2 MSTORE PUSH1 0x0 SWAP3 DUP4 MSTORE PUSH1 0x40 DUP1 DUP5 KECCAK256 SWAP1 SWAP2 MSTORE SWAP1 DUP3 MSTORE SWAP1 KECCAK256 DUP1 SLOAD PUSH1 0x1 SWAP1 SWAP2 ADD SLOAD PUSH1 0xFF AND DUP3 JUMP JUMPDEST PUSH1 0x40 DUP1 MLOAD SWAP3 DUP4 MSTORE SWAP1 ISZERO ISZERO PUSH1 0x20 DUP4 ADD MSTORE ADD PUSH2 0x14C JUMP JUMPDEST PUSH2 0x3B9 DUP2 PUSH2 0xC09 JUMP JUMPDEST PUSH2 0x402 JUMPI PUSH1 0x40 MLOAD PUSH3 0x461BCD PUSH1 0xE5 SHL DUP2 MSTORE PUSH1 0x20 PUSH1 0x4 DUP3 ADD MSTORE PUSH1 0x15 PUSH1 0x24 DUP3 ADD MSTORE PUSH21 0x2932B3B4B9BA3930BA34B7B7103737BA1037B832B7 PUSH1 0x59 SHL PUSH1 0x44 DUP3 ADD MSTORE PUSH1 0x64 ADD JUMPDEST PUSH1 0x40 MLOAD DUP1 SWAP2 SUB SWAP1 REVERT JUMPDEST PUSH4 0xFFFFFFFF AND PUSH1 0x0 SWAP1 DUP2 MSTORE PUSH1 0x6 PUSH1 0x20 SWAP1 DUP2 MSTORE PUSH1 0x40 DUP1 DUP4 KECCAK256 CALLER DUP5 MSTORE SWAP1 SWAP2 MSTORE SWAP1 KECCAK256 PUSH1 0x1 SWAP1 SSTORE JUMP JUMPDEST PUSH4 0xFFFFFFFF DUP1 DUP3 AND PUSH1 0x0 SWAP1 DUP2 MSTORE PUSH1 0x2 PUSH1 0x20 DUP2 SWAP1 MSTORE PUSH1 0x40 SWAP1 SWAP2 KECCAK256 ADD SLOAD PUSH1 0x60 SWAP2 AND PUSH2 0x492 JUMPI PUSH1 0x40 MLOAD PUSH3 0x461BCD PUSH1 0xE5 SHL DUP2 MSTORE PUSH1 0x20 PUSH1 0x4 DUP3 ADD MSTORE PUSH1 0x1A PUSH1 0x24 DUP3 ADD MSTORE PUSH32 0x54686520656C656374696F6E20646F65736E2774206578697374000000000000 PUSH1 0x44 DUP3 ADD MSTORE PUSH1 0x64 ADD PUSH2 0x3F9 JUMP JUMPDEST PUSH4 0xFFFFFFFF DUP3 AND PUSH1 0x0 SWAP1 DUP2 MSTORE PUSH1 0x5 PUSH1 0x20 MSTORE PUSH1 0x40 DUP2 KECCAK256 SLOAD PUSH8 0xFFFFFFFFFFFFFFFF DUP2 GT ISZERO PUSH2 0x4C0 JUMPI PUSH2 0x4C0 PUSH2 0x1261 JUMP JUMPDEST PUSH1 0x40 MLOAD SWAP1 DUP1 DUP3 MSTORE DUP1 PUSH1 0x20 MUL PUSH1 0x20 ADD DUP3 ADD PUSH1 0x40 MSTORE DUP1 ISZERO PUSH2 0x4E9 JUMPI DUP2 PUSH1 0x20 ADD PUSH1 0x20 DUP3 MUL DUP1 CALLDATASIZE DUP4 CALLDATACOPY ADD SWAP1 POP JUMPDEST POP SWAP1 POP PUSH1 0x0 JUMPDEST PUSH4 0xFFFFFFFF DUP5 AND PUSH1 0x0 SWAP1 DUP2 MSTORE PUSH1 0x5 PUSH1 0x20 MSTORE PUSH1 0x40 SWAP1 KECCAK256 SLOAD PUSH1 0xFF DUP3 AND LT ISZERO PUSH2 0x5B0 JUMPI PUSH4 0xFFFFFFFF DUP5 AND PUSH1 0x0 SWAP1 DUP2 MSTORE PUSH1 0x3 PUSH1 0x20 SWAP1 DUP2 MSTORE PUSH1 0x40 DUP1 DUP4 KECCAK256 PUSH1 0x5 SWAP1 SWAP3 MSTORE DUP3 KECCAK256 DUP1 SLOAD SWAP2 SWAP3 SWAP2 PUSH1 0xFF DUP6 AND SWAP1 DUP2 LT PUSH2 0x546 JUMPI PUSH2 0x546 PUSH2 0x1481 JUMP JUMPDEST SWAP1 PUSH1 0x0 MSTORE PUSH1 0x20 PUSH1 0x0 KECCAK256 SWAP1 PUSH1 0x20 SWAP2 DUP3 DUP3 DIV ADD SWAP2 SWAP1 MOD SWAP1 SLOAD SWAP1 PUSH2 0x100 EXP SWAP1 DIV PUSH1 0xFF AND PUSH1 0xFF AND PUSH1 0xFF AND DUP2 MSTORE PUSH1 0x20 ADD SWAP1 DUP2 MSTORE PUSH1 0x20 ADD PUSH1 0x0 KECCAK256 PUSH1 0x0 ADD SLOAD DUP3 DUP3 PUSH1 0xFF AND DUP2 MLOAD DUP2 LT PUSH2 0x593 JUMPI PUSH2 0x593 PUSH2 0x1481 JUMP JUMPDEST PUSH1 0x20 SWAP1 DUP2 MUL SWAP2 SWAP1 SWAP2 ADD ADD MSTORE DUP1 PUSH2 0x5A8 DUP2 PUSH2 0x14AD JUMP JUMPDEST SWAP2 POP POP PUSH2 0x4EF JUMP JUMPDEST POP SWAP3 SWAP2 POP POP JUMP JUMPDEST PUSH4 0xFFFFFFFF DUP1 DUP3 AND PUSH1 0x0 SWAP1 DUP2 MSTORE PUSH1 0x2 PUSH1 0x20 DUP2 SWAP1 MSTORE PUSH1 0x40 DUP3 KECCAK256 ADD SLOAD SWAP1 SWAP2 TIMESTAMP PUSH6 0x10000000000 SWAP1 SWAP3 DIV AND GT DUP1 ISZERO SWAP1 PUSH2 0x612 JUMPI POP PUSH4 0xFFFFFFFF DUP1 DUP4 AND PUSH1 0x0 SWAP1 DUP2 MSTORE PUSH1 0x2 PUSH1 0x20 DUP2 SWAP1 MSTORE PUSH1 0x40 SWAP1 SWAP2 KECCAK256 ADD SLOAD TIMESTAMP PUSH1 0x1 PUSH1 0x48 SHL SWAP1 SWAP2 DIV SWAP1 SWAP2 AND LT ISZERO JUMPDEST SWAP3 SWAP2 POP POP JUMP JUMPDEST PUSH2 0x624 DUP4 CALLER DUP5 DUP5 PUSH2 0xC65 JUMP JUMPDEST POP POP POP JUMP JUMPDEST PUSH1 0x1 SLOAD PUSH1 0x60 SWAP1 PUSH1 0x0 SWAP1 PUSH8 0xFFFFFFFFFFFFFFFF DUP2 GT ISZERO PUSH2 0x64A JUMPI PUSH2 0x64A PUSH2 0x1261 JUMP JUMPDEST PUSH1 0x40 MLOAD SWAP1 DUP1 DUP3 MSTORE DUP1 PUSH1 0x20 MUL PUSH1 0x20 ADD DUP3 ADD PUSH1 0x40 MSTORE DUP1 ISZERO PUSH2 0x673 JUMPI DUP2 PUSH1 0x20 ADD PUSH1 0x20 DUP3 MUL DUP1 CALLDATASIZE DUP4 CALLDATACOPY ADD SWAP1 POP JUMPDEST POP SWAP1 POP PUSH1 0x0 JUMPDEST PUSH1 0x1 SLOAD PUSH4 0xFFFFFFFF DUP3 AND LT ISZERO PUSH2 0x71F JUMPI PUSH1 0x2 PUSH1 0x0 PUSH1 0x1 DUP4 PUSH4 0xFFFFFFFF AND DUP2 SLOAD DUP2 LT PUSH2 0x6A6 JUMPI PUSH2 0x6A6 PUSH2 0x1481 JUMP JUMPDEST SWAP1 PUSH1 0x0 MSTORE PUSH1 0x20 PUSH1 0x0 KECCAK256 SWAP1 PUSH1 0x8 SWAP2 DUP3 DUP3 DIV ADD SWAP2 SWAP1 MOD PUSH1 0x4 MUL SWAP1 SLOAD SWAP1 PUSH2 0x100 EXP SWAP1 DIV PUSH4 0xFFFFFFFF AND PUSH4 0xFFFFFFFF AND PUSH4 0xFFFFFFFF AND DUP2 MSTORE PUSH1 0x20 ADD SWAP1 DUP2 MSTORE PUSH1 0x20 ADD PUSH1 0x0 KECCAK256 PUSH1 0x0 ADD SLOAD DUP3 DUP3 PUSH4 0xFFFFFFFF AND DUP2 MLOAD DUP2 LT PUSH2 0x702 JUMPI PUSH2 0x702 PUSH2 0x1481 JUMP JUMPDEST PUSH1 0x20 SWAP1 DUP2 MUL SWAP2 SWAP1 SWAP2 ADD ADD MSTORE DUP1 PUSH2 0x717 DUP2 PUSH2 0x14CD JUMP JUMPDEST SWAP2 POP POP PUSH2 0x679 JUMP JUMPDEST POP SWAP2 SWAP1 POP JUMP JUMPDEST PUSH4 0xFFFFFFFF DUP3 AND PUSH1 0x0 SWAP1 DUP2 MSTORE PUSH1 0x6 PUSH1 0x20 SWAP1 DUP2 MSTORE PUSH1 0x40 DUP1 DUP4 KECCAK256 PUSH1 0x1 PUSH1 0x1 PUSH1 0xA0 SHL SUB DUP6 AND DUP5 MSTORE SWAP1 SWAP2 MSTORE DUP2 KECCAK256 SLOAD ISZERO ISZERO DUP1 PUSH2 0x78D JUMPI POP PUSH4 0xFFFFFFFF DUP4 AND PUSH1 0x0 SWAP1 DUP2 MSTORE PUSH1 0x6 PUSH1 0x20 SWAP1 DUP2 MSTORE PUSH1 0x40 DUP1 DUP4 KECCAK256 PUSH1 0x1 PUSH1 0x1 PUSH1 0xA0 SHL SUB DUP7 AND DUP5 MSTORE SWAP1 SWAP2 MSTORE SWAP1 KECCAK256 PUSH1 0x1 SWAP1 DUP2 ADD SLOAD PUSH1 0xFF AND ISZERO ISZERO EQ JUMPDEST SWAP4 SWAP3 POP POP POP JUMP JUMPDEST PUSH1 0x5 PUSH1 0x20 MSTORE DUP2 PUSH1 0x0 MSTORE PUSH1 0x40 PUSH1 0x0 KECCAK256 DUP2 DUP2 SLOAD DUP2 LT PUSH2 0x7B0 JUMPI PUSH1 0x0 DUP1 REVERT JUMPDEST SWAP1 PUSH1 0x0 MSTORE PUSH1 0x20 PUSH1 0x0 KECCAK256 SWAP1 PUSH1 0x20 SWAP2 DUP3 DUP3 DIV ADD SWAP2 SWAP1 MOD SWAP2 POP SWAP2 POP SWAP1 SLOAD SWAP1 PUSH2 0x100 EXP SWAP1 DIV PUSH1 0xFF AND DUP2 JUMP JUMPDEST PUSH1 0x0 DUP6 MLOAD GT PUSH2 0x834 JUMPI PUSH1 0x40 MLOAD PUSH3 0x461BCD PUSH1 0xE5 SHL DUP2 MSTORE PUSH1 0x20 PUSH1 0x4 DUP3 ADD MSTORE PUSH1 0x24 DUP1 DUP3 ADD MSTORE PUSH32 0x54686572652073686F756C642062652061746C6561737420312063616E646964 PUSH1 0x44 DUP3 ADD MSTORE PUSH4 0x30BA3297 PUSH1 0xE1 SHL PUSH1 0x64 DUP3 ADD MSTORE PUSH1 0x84 ADD PUSH2 0x3F9 JUMP JUMPDEST PUSH1 0x0 DUP9 DUP2 MSTORE PUSH1 0x20 DUP2 SWAP1 MSTORE PUSH1 0x40 SWAP1 KECCAK256 SLOAD PUSH4 0xFFFFFFFF AND ISZERO PUSH2 0x8B5 JUMPI PUSH1 0x40 MLOAD PUSH3 0x461BCD PUSH1 0xE5 SHL DUP2 MSTORE PUSH1 0x20 PUSH1 0x4 DUP3 ADD MSTORE PUSH1 0x36 PUSH1 0x24 DUP3 ADD MSTORE PUSH32 0x5468697320656C656374696F6E20616C7265616479206578697374732C20706C PUSH1 0x44 DUP3 ADD MSTORE PUSH22 0x656173652073656C656374206F74686572206E616D65 PUSH1 0x50 SHL PUSH1 0x64 DUP3 ADD MSTORE PUSH1 0x84 ADD PUSH2 0x3F9 JUMP JUMPDEST PUSH1 0x7 SLOAD PUSH1 0x40 DUP1 MLOAD PUSH2 0x100 DUP2 ADD DUP3 MSTORE DUP11 DUP2 MSTORE PUSH1 0x20 DUP1 DUP3 ADD DUP12 DUP2 MSTORE PUSH4 0xFFFFFFFF SWAP5 DUP6 AND DUP4 DUP6 ADD DUP2 SWAP1 MSTORE DUP12 ISZERO ISZERO PUSH1 0x60 DUP6 ADD MSTORE DUP10 DUP7 AND PUSH1 0x80 DUP6 ADD MSTORE DUP9 DUP7 AND PUSH1 0xA0 DUP6 ADD MSTORE DUP8 DUP7 AND PUSH1 0xC0 DUP6 ADD MSTORE SWAP5 DUP7 AND PUSH1 0xE0 DUP5 ADD MSTORE PUSH1 0x0 DUP6 DUP2 MSTORE PUSH1 0x2 DUP4 MSTORE SWAP4 SWAP1 SWAP4 KECCAK256 DUP3 MLOAD DUP2 SSTORE SWAP3 MLOAD DUP1 MLOAD SWAP3 SWAP4 SWAP3 PUSH2 0x92C SWAP3 PUSH1 0x1 DUP6 ADD SWAP3 ADD SWAP1 PUSH2 0x107D JUMP JUMPDEST POP PUSH1 0x40 DUP3 DUP2 ADD MLOAD PUSH1 0x2 SWAP1 SWAP3 ADD DUP1 SLOAD PUSH1 0x60 DUP6 ADD MLOAD PUSH1 0x80 DUP7 ADD MLOAD PUSH1 0xA0 DUP8 ADD MLOAD PUSH1 0xC0 DUP9 ADD MLOAD PUSH1 0xE0 SWAP1 SWAP9 ADD MLOAD PUSH4 0xFFFFFFFF SWAP1 DUP2 AND PUSH1 0x1 PUSH1 0x88 SHL MUL PUSH4 0xFFFFFFFF PUSH1 0x88 SHL NOT SWAP10 DUP3 AND PUSH1 0x1 PUSH1 0x68 SHL MUL SWAP10 SWAP1 SWAP10 AND PUSH8 0xFFFFFFFFFFFFFFFF PUSH1 0x68 SHL NOT SWAP3 DUP3 AND PUSH1 0x1 PUSH1 0x48 SHL MUL PUSH13 0xFFFFFFFF000000000000000000 NOT SWAP5 DUP4 AND PUSH6 0x10000000000 MUL SWAP5 SWAP1 SWAP5 AND PUSH13 0xFFFFFFFFFFFFFFFF0000000000 NOT SWAP6 ISZERO ISZERO PUSH5 0x100000000 MUL PUSH5 0xFFFFFFFFFF NOT SWAP1 SWAP8 AND SWAP10 DUP4 AND SWAP10 SWAP1 SWAP10 OR SWAP6 SWAP1 SWAP6 OR SWAP4 SWAP1 SWAP4 AND SWAP7 SWAP1 SWAP7 OR OR SWAP5 SWAP1 SWAP5 AND OR SWAP4 SWAP1 SWAP4 OR SWAP1 SWAP3 SSTORE PUSH1 0x0 DUP12 DUP2 MSTORE PUSH1 0x20 DUP2 SWAP1 MSTORE SWAP2 DUP3 KECCAK256 DUP1 SLOAD DUP5 DUP4 AND PUSH4 0xFFFFFFFF NOT SWAP2 SWAP1 SWAP2 AND DUP2 OR SWAP1 SWAP2 SSTORE PUSH1 0x1 DUP1 SLOAD DUP1 DUP3 ADD DUP3 SSTORE SWAP1 DUP5 MSTORE PUSH1 0x8 DUP2 DIV PUSH32 0xB10E2D527612073B26EECDFD717E6A320CF44B4AFAC2B0732D9FCBE2B7FA0CF6 ADD DUP1 SLOAD PUSH1 0x7 SWAP1 SWAP3 AND PUSH1 0x4 MUL PUSH2 0x100 EXP SWAP3 DUP4 MUL SWAP3 SWAP1 SWAP4 MUL NOT AND OR SWAP1 SSTORE JUMPDEST DUP7 MLOAD DUP2 PUSH1 0xFF AND LT ISZERO PUSH2 0xB42 JUMPI PUSH2 0xB30 DUP3 DUP9 DUP4 PUSH1 0xFF AND DUP2 MLOAD DUP2 LT PUSH2 0xA82 JUMPI PUSH2 0xA82 PUSH2 0x1481 JUMP JUMPDEST PUSH1 0x20 MUL PUSH1 0x20 ADD ADD MLOAD DUP4 PUSH1 0x1 PUSH2 0xA97 SWAP2 SWAP1 PUSH2 0x14F1 JUMP JUMPDEST PUSH1 0x40 DUP1 MLOAD DUP1 DUP3 ADD DUP3 MSTORE DUP4 DUP2 MSTORE PUSH1 0x0 PUSH1 0x20 DUP1 DUP4 ADD DUP3 DUP2 MSTORE PUSH4 0xFFFFFFFF SWAP8 SWAP1 SWAP8 AND DUP1 DUP4 MSTORE PUSH1 0x3 DUP3 MSTORE DUP5 DUP4 KECCAK256 PUSH1 0xFF SWAP7 DUP8 AND DUP1 DUP6 MSTORE SWAP1 DUP4 MSTORE DUP6 DUP5 KECCAK256 SWAP5 MLOAD DUP6 SSTORE SWAP8 MLOAD PUSH1 0x1 SWAP5 DUP6 ADD SSTORE DUP1 DUP4 MSTORE PUSH1 0x4 DUP3 MSTORE DUP5 DUP4 KECCAK256 SWAP7 DUP4 MSTORE SWAP6 DUP2 MSTORE DUP4 DUP3 KECCAK256 DUP1 SLOAD PUSH1 0xFF NOT AND DUP9 OR SWAP1 SSTORE SWAP5 DUP2 MSTORE PUSH1 0x5 DUP6 MSTORE SWAP2 DUP3 KECCAK256 DUP1 SLOAD SWAP2 DUP3 ADD DUP2 SSTORE DUP3 MSTORE SWAP1 DUP4 SWAP1 KECCAK256 SWAP3 DUP2 DIV SWAP1 SWAP3 ADD DUP1 SLOAD PUSH1 0x1F SWAP1 SWAP4 AND PUSH2 0x100 EXP SWAP2 DUP3 MUL NOT SWAP1 SWAP3 AND SWAP3 MUL SWAP2 SWAP1 SWAP2 OR SWAP1 SSTORE JUMP JUMPDEST DUP1 PUSH2 0xB3A DUP2 PUSH2 0x14AD JUMP JUMPDEST SWAP2 POP POP PUSH2 0xA5D JUMP JUMPDEST POP PUSH32 0x8C22F42E1642C0F410BC4E3DEBF771A1355EC556BDAF3CE7428E555196569C96 DUP10 DUP10 DUP4 DUP11 DUP10 DUP10 DUP10 DUP10 PUSH1 0x40 MLOAD PUSH2 0xB80 SWAP9 SWAP8 SWAP7 SWAP6 SWAP5 SWAP4 SWAP3 SWAP2 SWAP1 PUSH2 0x1516 JUMP JUMPDEST PUSH1 0x40 MLOAD DUP1 SWAP2 SUB SWAP1 LOG1 PUSH1 0x7 DUP1 SLOAD PUSH4 0xFFFFFFFF AND SWAP1 PUSH1 0x0 PUSH2 0xB9E DUP4 PUSH2 0x14CD JUMP JUMPDEST SWAP2 SWAP1 PUSH2 0x100 EXP DUP2 SLOAD DUP2 PUSH4 0xFFFFFFFF MUL NOT AND SWAP1 DUP4 PUSH4 0xFFFFFFFF AND MUL OR SWAP1 SSTORE POP POP PUSH1 0x7 PUSH1 0x4 DUP2 DUP2 SWAP1 SLOAD SWAP1 PUSH2 0x100 EXP SWAP1 DIV PUSH4 0xFFFFFFFF AND DUP1 SWAP3 SWAP2 SWAP1 PUSH2 0xBDF SWAP1 PUSH2 0x14CD JUMP JUMPDEST SWAP2 SWAP1 PUSH2 0x100 EXP DUP2 SLOAD DUP2 PUSH4 0xFFFFFFFF MUL NOT AND SWAP1 DUP4 PUSH4 0xFFFFFFFF AND MUL OR SWAP1 SSTORE POP POP POP POP POP POP POP POP POP POP POP JUMP JUMPDEST PUSH4 0xFFFFFFFF DUP1 DUP3 AND PUSH1 0x0 SWAP1 DUP2 MSTORE PUSH1 0x2 PUSH1 0x20 DUP2 SWAP1 MSTORE PUSH1 0x40 DUP3 KECCAK256 ADD SLOAD SWAP1 SWAP2 TIMESTAMP PUSH1 0x1 PUSH1 0x68 SHL SWAP1 SWAP3 DIV AND GT DUP1 ISZERO SWAP1 PUSH2 0x612 JUMPI POP POP PUSH4 0xFFFFFFFF SWAP1 DUP2 AND PUSH1 0x0 SWAP1 DUP2 MSTORE PUSH1 0x2 PUSH1 0x20 DUP2 SWAP1 MSTORE PUSH1 0x40 SWAP1 SWAP2 KECCAK256 ADD SLOAD TIMESTAMP PUSH1 0x1 PUSH1 0x88 SHL SWAP1 SWAP2 DIV SWAP1 SWAP2 AND LT ISZERO SWAP1 JUMP JUMPDEST PUSH4 0xFFFFFFFF DUP1 DUP6 AND PUSH1 0x0 SWAP1 DUP2 MSTORE PUSH1 0x2 PUSH1 0x20 DUP2 SWAP1 MSTORE PUSH1 0x40 SWAP1 SWAP2 KECCAK256 ADD SLOAD AND PUSH2 0xCCD JUMPI PUSH1 0x40 MLOAD PUSH3 0x461BCD PUSH1 0xE5 SHL DUP2 MSTORE PUSH1 0x20 PUSH1 0x4 DUP3 ADD MSTORE PUSH1 0x1A PUSH1 0x24 DUP3 ADD MSTORE PUSH32 0x54686520656C656374696F6E20646F65736E2774206578697374000000000000 PUSH1 0x44 DUP3 ADD MSTORE PUSH1 0x64 ADD PUSH2 0x3F9 JUMP JUMPDEST PUSH2 0xCD6 DUP5 PUSH2 0x5B7 JUMP JUMPDEST PUSH2 0xD1B JUMPI PUSH1 0x40 MLOAD PUSH3 0x461BCD PUSH1 0xE5 SHL DUP2 MSTORE PUSH1 0x20 PUSH1 0x4 DUP3 ADD MSTORE PUSH1 0x16 PUSH1 0x24 DUP3 ADD MSTORE PUSH22 0x151A1948195B1958DD1A5BDB881A5CC818DB1BDCD959 PUSH1 0x52 SHL PUSH1 0x44 DUP3 ADD MSTORE PUSH1 0x64 ADD PUSH2 0x3F9 JUMP JUMPDEST PUSH4 0xFFFFFFFF DUP5 AND PUSH1 0x0 SWAP1 DUP2 MSTORE PUSH1 0x2 PUSH1 0x20 DUP2 SWAP1 MSTORE PUSH1 0x40 SWAP1 SWAP2 KECCAK256 ADD SLOAD PUSH5 0x100000000 SWAP1 DIV PUSH1 0xFF AND ISZERO PUSH2 0xDA0 JUMPI PUSH2 0xD4F DUP5 DUP5 PUSH2 0x725 JUMP JUMPDEST PUSH2 0xD9B JUMPI PUSH1 0x40 MLOAD PUSH3 0x461BCD PUSH1 0xE5 SHL DUP2 MSTORE PUSH1 0x20 PUSH1 0x4 DUP3 ADD MSTORE PUSH1 0x17 PUSH1 0x24 DUP3 ADD MSTORE PUSH32 0x566F746572206861736E27742072656769737465726564000000000000000000 PUSH1 0x44 DUP3 ADD MSTORE PUSH1 0x64 ADD PUSH2 0x3F9 JUMP JUMPDEST PUSH2 0xDCE JUMP JUMPDEST PUSH4 0xFFFFFFFF DUP5 AND PUSH1 0x0 SWAP1 DUP2 MSTORE PUSH1 0x6 PUSH1 0x20 SWAP1 DUP2 MSTORE PUSH1 0x40 DUP1 DUP4 KECCAK256 PUSH1 0x1 PUSH1 0x1 PUSH1 0xA0 SHL SUB DUP8 AND DUP5 MSTORE SWAP1 SWAP2 MSTORE SWAP1 KECCAK256 PUSH1 0x1 SWAP1 SSTORE JUMPDEST PUSH4 0xFFFFFFFF DUP5 AND PUSH1 0x0 SWAP1 DUP2 MSTORE PUSH1 0x6 PUSH1 0x20 SWAP1 DUP2 MSTORE PUSH1 0x40 DUP1 DUP4 KECCAK256 PUSH1 0x1 PUSH1 0x1 PUSH1 0xA0 SHL SUB DUP8 AND DUP5 MSTORE SWAP1 SWAP2 MSTORE SWAP1 KECCAK256 PUSH1 0x1 ADD SLOAD PUSH1 0xFF AND ISZERO PUSH2 0xE4B JUMPI PUSH1 0x40 MLOAD PUSH3 0x461BCD PUSH1 0xE5 SHL DUP2 MSTORE PUSH1 0x20 PUSH1 0x4 DUP3 ADD MSTORE PUSH1 0x18 PUSH1 0x24 DUP3 ADD MSTORE PUSH32 0x566F7465722068617320616C726561647920566F746564210000000000000000 PUSH1 0x44 DUP3 ADD MSTORE PUSH1 0x64 ADD PUSH2 0x3F9 JUMP JUMPDEST PUSH4 0xFFFFFFFF DUP5 AND PUSH1 0x0 SWAP1 DUP2 MSTORE PUSH1 0x6 PUSH1 0x20 SWAP1 DUP2 MSTORE PUSH1 0x40 DUP1 DUP4 KECCAK256 PUSH1 0x1 PUSH1 0x1 PUSH1 0xA0 SHL SUB DUP8 AND DUP5 MSTORE SWAP1 SWAP2 MSTORE SWAP1 KECCAK256 SLOAD DUP2 GT ISZERO PUSH2 0xEC4 JUMPI PUSH1 0x40 MLOAD PUSH3 0x461BCD PUSH1 0xE5 SHL DUP2 MSTORE PUSH1 0x20 PUSH1 0x4 DUP3 ADD MSTORE PUSH1 0x1F PUSH1 0x24 DUP3 ADD MSTORE PUSH32 0x566F74657220646F206E6F74206861766520736F206D616E7920766F74657300 PUSH1 0x44 DUP3 ADD MSTORE PUSH1 0x64 ADD PUSH2 0x3F9 JUMP JUMPDEST PUSH4 0xFFFFFFFF DUP5 AND PUSH1 0x0 SWAP1 DUP2 MSTORE PUSH1 0x3 PUSH1 0x20 SWAP1 DUP2 MSTORE PUSH1 0x40 DUP1 DUP4 KECCAK256 PUSH1 0xFF DUP7 AND DUP5 MSTORE SWAP1 SWAP2 MSTORE SWAP1 KECCAK256 SLOAD PUSH2 0xF34 JUMPI PUSH1 0x40 MLOAD PUSH3 0x461BCD PUSH1 0xE5 SHL DUP2 MSTORE PUSH1 0x20 PUSH1 0x4 DUP3 ADD MSTORE PUSH1 0x1A PUSH1 0x24 DUP3 ADD MSTORE PUSH32 0x496E76616C69642063616E64696461746520746F20566F746521000000000000 PUSH1 0x44 DUP3 ADD MSTORE PUSH1 0x64 ADD PUSH2 0x3F9 JUMP JUMPDEST PUSH4 0xFFFFFFFF DUP5 AND PUSH1 0x0 SWAP1 DUP2 MSTORE PUSH1 0x3 PUSH1 0x20 SWAP1 DUP2 MSTORE PUSH1 0x40 DUP1 DUP4 KECCAK256 PUSH1 0xFF DUP7 AND DUP5 MSTORE SWAP1 SWAP2 MSTORE SWAP1 KECCAK256 PUSH1 0x1 ADD SLOAD PUSH2 0xF66 SWAP1 DUP3 SWAP1 PUSH2 0x15BC JUMP JUMPDEST PUSH4 0xFFFFFFFF DUP6 AND PUSH1 0x0 DUP2 DUP2 MSTORE PUSH1 0x3 PUSH1 0x20 SWAP1 DUP2 MSTORE PUSH1 0x40 DUP1 DUP4 KECCAK256 PUSH1 0xFF DUP9 AND DUP5 MSTORE DUP3 MSTORE DUP1 DUP4 KECCAK256 PUSH1 0x1 ADD SWAP5 SWAP1 SWAP5 SSTORE SWAP2 DUP2 MSTORE PUSH1 0x6 DUP3 MSTORE DUP3 DUP2 KECCAK256 PUSH1 0x1 PUSH1 0x1 PUSH1 0xA0 SHL SUB DUP8 AND DUP3 MSTORE SWAP1 SWAP2 MSTORE KECCAK256 SLOAD PUSH2 0xFB6 SWAP1 DUP3 SWAP1 PUSH2 0x15D4 JUMP JUMPDEST PUSH4 0xFFFFFFFF DUP6 AND PUSH1 0x0 SWAP1 DUP2 MSTORE PUSH1 0x6 PUSH1 0x20 SWAP1 DUP2 MSTORE PUSH1 0x40 DUP1 DUP4 KECCAK256 PUSH1 0x1 PUSH1 0x1 PUSH1 0xA0 SHL SUB DUP9 AND DUP5 MSTORE SWAP1 SWAP2 MSTORE SWAP1 KECCAK256 DUP2 SWAP1 SSTORE PUSH2 0x1020 JUMPI PUSH4 0xFFFFFFFF DUP5 AND PUSH1 0x0 SWAP1 DUP2 MSTORE PUSH1 0x6 PUSH1 0x20 SWAP1 DUP2 MSTORE PUSH1 0x40 DUP1 DUP4 KECCAK256 PUSH1 0x1 PUSH1 0x1 PUSH1 0xA0 SHL SUB DUP8 AND DUP5 MSTORE SWAP1 SWAP2 MSTORE SWAP1 KECCAK256 PUSH1 0x1 SWAP1 DUP2 ADD DUP1 SLOAD PUSH1 0xFF NOT AND SWAP1 SWAP2 OR SWAP1 SSTORE JUMPDEST PUSH1 0x40 DUP1 MLOAD PUSH4 0xFFFFFFFF DUP7 AND DUP2 MSTORE PUSH1 0x1 PUSH1 0x1 PUSH1 0xA0 SHL SUB DUP6 AND PUSH1 0x20 DUP3 ADD MSTORE PUSH1 0xFF DUP5 AND DUP2 DUP4 ADD MSTORE PUSH1 0x60 DUP2 ADD DUP4 SWAP1 MSTORE SWAP1 MLOAD PUSH32 0x66EB9354084DA3C9417BFAEB0F63DE26C8976282F67E1687AF5B90E8D3FBD387 SWAP2 DUP2 SWAP1 SUB PUSH1 0x80 ADD SWAP1 LOG1 POP POP POP POP JUMP JUMPDEST DUP3 DUP1 SLOAD PUSH2 0x1089 SWAP1 PUSH2 0x15EB JUMP JUMPDEST SWAP1 PUSH1 0x0 MSTORE PUSH1 0x20 PUSH1 0x0 KECCAK256 SWAP1 PUSH1 0x1F ADD PUSH1 0x20 SWAP1 DIV DUP2 ADD SWAP3 DUP3 PUSH2 0x10AB JUMPI PUSH1 0x0 DUP6 SSTORE PUSH2 0x10F1 JUMP JUMPDEST DUP3 PUSH1 0x1F LT PUSH2 0x10C4 JUMPI DUP1 MLOAD PUSH1 0xFF NOT AND DUP4 DUP1 ADD OR DUP6 SSTORE PUSH2 0x10F1 JUMP JUMPDEST DUP3 DUP1 ADD PUSH1 0x1 ADD DUP6 SSTORE DUP3 ISZERO PUSH2 0x10F1 JUMPI SWAP2 DUP3 ADD JUMPDEST DUP3 DUP2 GT ISZERO PUSH2 0x10F1 JUMPI DUP3 MLOAD DUP3 SSTORE SWAP2 PUSH1 0x20 ADD SWAP2 SWAP1 PUSH1 0x1 ADD SWAP1 PUSH2 0x10D6 JUMP JUMPDEST POP PUSH2 0x10FD SWAP3 SWAP2 POP PUSH2 0x1101 JUMP JUMPDEST POP SWAP1 JUMP JUMPDEST JUMPDEST DUP1 DUP3 GT ISZERO PUSH2 0x10FD JUMPI PUSH1 0x0 DUP2 SSTORE PUSH1 0x1 ADD PUSH2 0x1102 JUMP JUMPDEST DUP1 CALLDATALOAD PUSH4 0xFFFFFFFF DUP2 AND DUP2 EQ PUSH2 0x112A JUMPI PUSH1 0x0 DUP1 REVERT JUMPDEST SWAP2 SWAP1 POP JUMP JUMPDEST PUSH1 0x0 DUP1 PUSH1 0x40 DUP4 DUP6 SUB SLT ISZERO PUSH2 0x1142 JUMPI PUSH1 0x0 DUP1 REVERT JUMPDEST PUSH2 0x114B DUP4 PUSH2 0x1116 JUMP JUMPDEST SWAP5 PUSH1 0x20 SWAP4 SWAP1 SWAP4 ADD CALLDATALOAD SWAP4 POP POP POP JUMP JUMPDEST PUSH1 0x0 PUSH1 0x20 DUP3 DUP5 SUB SLT ISZERO PUSH2 0x116B JUMPI PUSH1 0x0 DUP1 REVERT JUMPDEST PUSH2 0x78D DUP3 PUSH2 0x1116 JUMP JUMPDEST PUSH1 0x20 DUP1 DUP3 MSTORE DUP3 MLOAD DUP3 DUP3 ADD DUP2 SWAP1 MSTORE PUSH1 0x0 SWAP2 SWAP1 DUP5 DUP3 ADD SWAP1 PUSH1 0x40 DUP6 ADD SWAP1 DUP5 JUMPDEST DUP2 DUP2 LT ISZERO PUSH2 0x11AC JUMPI DUP4 MLOAD DUP4 MSTORE SWAP3 DUP5 ADD SWAP3 SWAP2 DUP5 ADD SWAP2 PUSH1 0x1 ADD PUSH2 0x1190 JUMP JUMPDEST POP SWAP1 SWAP7 SWAP6 POP POP POP POP POP POP JUMP JUMPDEST DUP1 CALLDATALOAD PUSH1 0xFF DUP2 AND DUP2 EQ PUSH2 0x112A JUMPI PUSH1 0x0 DUP1 REVERT JUMPDEST PUSH1 0x0 DUP1 PUSH1 0x0 PUSH1 0x60 DUP5 DUP7 SUB SLT ISZERO PUSH2 0x11DE JUMPI PUSH1 0x0 DUP1 REVERT JUMPDEST PUSH2 0x11E7 DUP5 PUSH2 0x1116 JUMP JUMPDEST SWAP3 POP PUSH2 0x11F5 PUSH1 0x20 DUP6 ADD PUSH2 0x11B8 JUMP JUMPDEST SWAP2 POP PUSH1 0x40 DUP5 ADD CALLDATALOAD SWAP1 POP SWAP3 POP SWAP3 POP SWAP3 JUMP JUMPDEST PUSH1 0x0 PUSH1 0x20 DUP3 DUP5 SUB SLT ISZERO PUSH2 0x1217 JUMPI PUSH1 0x0 DUP1 REVERT JUMPDEST POP CALLDATALOAD SWAP2 SWAP1 POP JUMP JUMPDEST PUSH1 0x0 DUP1 PUSH1 0x40 DUP4 DUP6 SUB SLT ISZERO PUSH2 0x1231 JUMPI PUSH1 0x0 DUP1 REVERT JUMPDEST PUSH2 0x123A DUP4 PUSH2 0x1116 JUMP JUMPDEST SWAP2 POP PUSH1 0x20 DUP4 ADD CALLDATALOAD PUSH1 0x1 PUSH1 0x1 PUSH1 0xA0 SHL SUB DUP2 AND DUP2 EQ PUSH2 0x1256 JUMPI PUSH1 0x0 DUP1 REVERT JUMPDEST DUP1 SWAP2 POP POP SWAP3 POP SWAP3 SWAP1 POP JUMP JUMPDEST PUSH4 0x4E487B71 PUSH1 0xE0 SHL PUSH1 0x0 MSTORE PUSH1 0x41 PUSH1 0x4 MSTORE PUSH1 0x24 PUSH1 0x0 REVERT JUMPDEST PUSH1 0x40 MLOAD PUSH1 0x1F DUP3 ADD PUSH1 0x1F NOT AND DUP2 ADD PUSH8 0xFFFFFFFFFFFFFFFF DUP2 GT DUP3 DUP3 LT OR ISZERO PUSH2 0x12A0 JUMPI PUSH2 0x12A0 PUSH2 0x1261 JUMP JUMPDEST PUSH1 0x40 MSTORE SWAP2 SWAP1 POP JUMP JUMPDEST DUP1 CALLDATALOAD DUP1 ISZERO ISZERO DUP2 EQ PUSH2 0x112A JUMPI PUSH1 0x0 DUP1 REVERT JUMPDEST PUSH1 0x0 DUP3 PUSH1 0x1F DUP4 ADD SLT PUSH2 0x12C9 JUMPI PUSH1 0x0 DUP1 REVERT JUMPDEST DUP2 CALLDATALOAD PUSH1 0x20 PUSH8 0xFFFFFFFFFFFFFFFF DUP3 GT ISZERO PUSH2 0x12E5 JUMPI PUSH2 0x12E5 PUSH2 0x1261 JUMP JUMPDEST DUP2 PUSH1 0x5 SHL PUSH2 0x12F4 DUP3 DUP3 ADD PUSH2 0x1277 JUMP JUMPDEST SWAP3 DUP4 MSTORE DUP5 DUP2 ADD DUP3 ADD SWAP3 DUP3 DUP2 ADD SWAP1 DUP8 DUP6 GT ISZERO PUSH2 0x130E JUMPI PUSH1 0x0 DUP1 REVERT JUMPDEST DUP4 DUP8 ADD SWAP3 POP JUMPDEST DUP5 DUP4 LT ISZERO PUSH2 0x132D JUMPI DUP3 CALLDATALOAD DUP3 MSTORE SWAP2 DUP4 ADD SWAP2 SWAP1 DUP4 ADD SWAP1 PUSH2 0x1314 JUMP JUMPDEST SWAP8 SWAP7 POP POP POP POP POP POP POP JUMP JUMPDEST PUSH1 0x0 DUP1 PUSH1 0x0 DUP1 PUSH1 0x0 DUP1 PUSH1 0x0 DUP1 PUSH2 0x100 DUP10 DUP12 SUB SLT ISZERO PUSH2 0x1355 JUMPI PUSH1 0x0 DUP1 REVERT JUMPDEST DUP9 CALLDATALOAD SWAP8 POP PUSH1 0x20 DUP1 DUP11 ADD CALLDATALOAD PUSH8 0xFFFFFFFFFFFFFFFF DUP1 DUP3 GT ISZERO PUSH2 0x1375 JUMPI PUSH1 0x0 DUP1 REVERT JUMPDEST DUP2 DUP13 ADD SWAP2 POP DUP13 PUSH1 0x1F DUP4 ADD SLT PUSH2 0x1389 JUMPI PUSH1 0x0 DUP1 REVERT JUMPDEST DUP2 CALLDATALOAD DUP2 DUP2 GT ISZERO PUSH2 0x139B JUMPI PUSH2 0x139B PUSH2 0x1261 JUMP JUMPDEST PUSH2 0x13AD PUSH1 0x1F DUP3 ADD PUSH1 0x1F NOT AND DUP6 ADD PUSH2 0x1277 JUMP JUMPDEST DUP2 DUP2 MSTORE DUP15 DUP6 DUP4 DUP7 ADD ADD GT ISZERO PUSH2 0x13C1 JUMPI PUSH1 0x0 DUP1 REVERT JUMPDEST DUP2 DUP6 DUP6 ADD DUP7 DUP4 ADD CALLDATACOPY PUSH1 0x0 DUP6 DUP4 DUP4 ADD ADD MSTORE DUP1 SWAP12 POP POP POP PUSH2 0x13E2 PUSH1 0x40 DUP14 ADD PUSH2 0x12A8 JUMP JUMPDEST SWAP9 POP PUSH1 0x60 DUP13 ADD CALLDATALOAD SWAP3 POP DUP1 DUP4 GT ISZERO PUSH2 0x13F8 JUMPI PUSH1 0x0 DUP1 REVERT JUMPDEST POP POP PUSH2 0x1406 DUP12 DUP3 DUP13 ADD PUSH2 0x12B8 JUMP JUMPDEST SWAP6 POP POP PUSH2 0x1415 PUSH1 0x80 DUP11 ADD PUSH2 0x1116 JUMP JUMPDEST SWAP4 POP PUSH2 0x1423 PUSH1 0xA0 DUP11 ADD PUSH2 0x1116 JUMP JUMPDEST SWAP3 POP PUSH2 0x1431 PUSH1 0xC0 DUP11 ADD PUSH2 0x1116 JUMP JUMPDEST SWAP2 POP PUSH2 0x143F PUSH1 0xE0 DUP11 ADD PUSH2 0x1116 JUMP JUMPDEST SWAP1 POP SWAP3 SWAP6 SWAP9 POP SWAP3 SWAP6 SWAP9 SWAP1 SWAP4 SWAP7 POP JUMP JUMPDEST PUSH1 0x0 DUP1 PUSH1 0x40 DUP4 DUP6 SUB SLT ISZERO PUSH2 0x1461 JUMPI PUSH1 0x0 DUP1 REVERT JUMPDEST PUSH2 0x146A DUP4 PUSH2 0x1116 JUMP JUMPDEST SWAP2 POP PUSH2 0x1478 PUSH1 0x20 DUP5 ADD PUSH2 0x11B8 JUMP JUMPDEST SWAP1 POP SWAP3 POP SWAP3 SWAP1 POP JUMP JUMPDEST PUSH4 0x4E487B71 PUSH1 0xE0 SHL PUSH1 0x0 MSTORE PUSH1 0x32 PUSH1 0x4 MSTORE PUSH1 0x24 PUSH1 0x0 REVERT JUMPDEST PUSH4 0x4E487B71 PUSH1 0xE0 SHL PUSH1 0x0 MSTORE PUSH1 0x11 PUSH1 0x4 MSTORE PUSH1 0x24 PUSH1 0x0 REVERT JUMPDEST PUSH1 0x0 PUSH1 0xFF DUP3 AND PUSH1 0xFF DUP2 EQ ISZERO PUSH2 0x14C4 JUMPI PUSH2 0x14C4 PUSH2 0x1497 JUMP JUMPDEST PUSH1 0x1 ADD SWAP3 SWAP2 POP POP JUMP JUMPDEST PUSH1 0x0 PUSH4 0xFFFFFFFF DUP1 DUP4 AND DUP2 DUP2 EQ ISZERO PUSH2 0x14E7 JUMPI PUSH2 0x14E7 PUSH2 0x1497 JUMP JUMPDEST PUSH1 0x1 ADD SWAP4 SWAP3 POP POP POP JUMP JUMPDEST PUSH1 0x0 PUSH1 0xFF DUP3 AND PUSH1 0xFF DUP5 AND DUP1 PUSH1 0xFF SUB DUP3 GT ISZERO PUSH2 0x150E JUMPI PUSH2 0x150E PUSH2 0x1497 JUMP JUMPDEST ADD SWAP4 SWAP3 POP POP POP JUMP JUMPDEST PUSH1 0x0 PUSH2 0x100 DUP11 DUP4 MSTORE PUSH1 0x20 DUP2 DUP2 DUP6 ADD MSTORE DUP11 MLOAD DUP1 DUP4 DUP7 ADD MSTORE PUSH1 0x0 SWAP3 POP JUMPDEST DUP1 DUP4 LT ISZERO PUSH2 0x1550 JUMPI DUP12 DUP4 ADD DUP3 ADD MLOAD DUP6 DUP5 ADD PUSH2 0x120 ADD MSTORE SWAP2 DUP2 ADD SWAP2 PUSH2 0x1531 JUMP JUMPDEST DUP1 DUP4 GT ISZERO PUSH2 0x1563 JUMPI PUSH1 0x0 PUSH2 0x120 DUP3 DUP8 ADD ADD MSTORE JUMPDEST PUSH1 0x1F ADD PUSH1 0x1F NOT AND DUP5 ADD PUSH2 0x120 ADD SWAP3 POP PUSH2 0x1587 SWAP2 POP POP PUSH1 0x40 DUP4 ADD DUP10 PUSH4 0xFFFFFFFF AND SWAP1 MSTORE JUMP JUMPDEST SWAP6 ISZERO ISZERO PUSH1 0x60 DUP3 ADD MSTORE PUSH4 0xFFFFFFFF SWAP5 DUP6 AND PUSH1 0x80 DUP3 ADD MSTORE SWAP3 DUP5 AND PUSH1 0xA0 DUP5 ADD MSTORE SWAP1 DUP4 AND PUSH1 0xC0 DUP4 ADD MSTORE SWAP1 SWAP2 AND PUSH1 0xE0 SWAP1 SWAP2 ADD MSTORE SWAP4 SWAP3 POP POP POP JUMP JUMPDEST PUSH1 0x0 DUP3 NOT DUP3 GT ISZERO PUSH2 0x15CF JUMPI PUSH2 0x15CF PUSH2 0x1497 JUMP JUMPDEST POP ADD SWAP1 JUMP JUMPDEST PUSH1 0x0 DUP3 DUP3 LT ISZERO PUSH2 0x15E6 JUMPI PUSH2 0x15E6 PUSH2 0x1497 JUMP JUMPDEST POP SUB SWAP1 JUMP JUMPDEST PUSH1 0x1 DUP2 DUP2 SHR SWAP1 DUP3 AND DUP1 PUSH2 0x15FF JUMPI PUSH1 0x7F DUP3 AND SWAP2 POP JUMPDEST PUSH1 0x20 DUP3 LT DUP2 EQ ISZERO PUSH2 0x71F JUMPI PUSH4 0x4E487B71 PUSH1 0xE0 SHL PUSH1 0x0 MSTORE PUSH1 0x22 PUSH1 0x4 MSTORE PUSH1 0x24 PUSH1 0x0 REVERT INVALID LOG2 PUSH5 0x6970667358 0x22 SLT KECCAK256 ADDRESS 0x2B 0xF8 PUSH7 0xEB3794D4CDE5BA EXTCODECOPY GAS 0x5C 0x4D SWAP13 EXTCODEHASH MULMOD ADDMOD 0xAF 0xE9 GASLIMIT PUSH14 0x85F3116BEC27C2BB8564736F6C63 NUMBER STOP ADDMOD 0xC STOP CALLER ",
  "sha1": "5f74a06c09356bd0c9dd18737ef12ee883e1da9f",
  "source": "// SPDX-License-Identifier: MIT\npragma solidity ^0.8.0;\n\ncontract SimpleElection {\n    //Structure of an election\n    struct Election {\n        bytes32 name;\n        string description;\n        uint32 id;\n        bool requireRegitration;\n        uint32 startElection;\n        uint32 endElection;\n        uint32 startRegistration;\n        uint32 endRegistration;\n    }\n\n    mapping(bytes32 => uint32) electionsIds; //list of current elections\n    uint32[] currentElections;\n\n    //Structure of candidate standing in an election\n    struct Candidate {\n        bytes32 name; //name of the proposal\n        uint256 voteCount; //votes received\n    }\n\n    //Structure of a voter\n    struct Voter {\n        uint256 weight; // weight is accumulated by delegation\n        bool voted; // if true, that person already voted\n    }\n\n    //Mapping of the elections\n    mapping(uint32 => Election) elections;\n\n    //Mappings of the proposals for every election\n    mapping(uint32 => mapping(uint8 => Candidate)) public candidates;\n\n    mapping(uint32 => mapping(bytes32 => uint8)) public candidatesIds;\n\n    //List of the proposal for every election\n    mapping(uint32 => uint8[]) public candidatesList;\n\n    //Mapping of the voters for every election\n    mapping(uint32 => mapping(address => Voter)) public voters;\n\n    uint32 electionNonce;\n    uint32 electionCount;\n\n    event ElectionCreated(\n        bytes32 name,\n        string description,\n        uint256 electionId,\n        bool requireRegitration,\n        uint32 startElection,\n        uint32 endElection,\n        uint32 startRegistration,\n        uint32 endRegistration\n    );\n    event Voted(\n        uint32 electionId,\n        address voter,\n        uint8 _candidateId,\n        uint256 _weight\n    );\n\n    constructor() {\n        electionNonce = 1;\n        electionCount = 1;\n    }\n\n    //A function that creates an election structure.\n    function createElection(\n        bytes32 _name, //name of the election\n        string memory _description, //a description\n        bool _requireRegitration, //true if is required a registration\n        bytes32[] memory _candidates, //the list of proposals\n        uint32 _startElection, //date of the begin of the election period\n        uint32 _endElection, //date of the end of the election period\n        uint32 _startRegistration, //date of the begin of the registration period\n        uint32 _endRegistration //date of the end of the registration period\n    ) public {\n        require(_candidates.length > 0, \"There should be atleast 1 candidate.\");\n\n        require(\n            !electionExists(_name),\n            \"This election already exists, please select other name\"\n        );\n        uint32 electionId = electionNonce;\n        elections[electionId] = Election(\n            _name,\n            _description,\n            electionId,\n            _requireRegitration,\n            _startElection,\n            _endElection,\n            _startRegistration,\n            _endRegistration\n        );\n        electionsIds[_name] = electionId;\n        currentElections.push(electionId);\n\n        for (uint8 i = 0; i < _candidates.length; i++) {\n            addCandidate(electionId, _candidates[i], i + 1);\n        }\n        emit ElectionCreated(\n            _name,\n            _description,\n            electionId,\n            _requireRegitration,\n            _startElection,\n            _endElection,\n            _startRegistration,\n            _endRegistration\n        );\n        electionNonce++;\n        electionCount++;\n    }\n\n    //Private function to add a candidate\n    function addCandidate(\n        uint32 _electionId,\n        bytes32 _candidateName,\n        uint8 _candidateId\n    ) private {\n        candidates[_electionId][_candidateId] = Candidate(_candidateName, 0);\n        candidatesIds[_electionId][_candidateName] = _candidateId;\n        candidatesList[_electionId].push(_candidateId);\n    }\n\n    //Private vote function for voting a candidate\n    function voterVote(\n        uint32 _electionId, //the election in which vote\n        address _voter, //the voter\n        uint8 _candidateId, //the proposal to vote\n        uint256 _weight //\"how many times\" vote\n    ) private {\n        require(electionExists(_electionId), \"The election doesn't exist\");\n        require(checkElectionOpen(_electionId), \"The election is closed\");\n        if (elections[_electionId].requireRegitration) {\n            require(\n                voterHasRegistred(_electionId, _voter),\n                \"Voter hasn't registered\"\n            );\n        } else {\n            registerVoter(_electionId, _voter);\n        }\n        require(\n            !voterHasVoted(_electionId, _voter),\n            \"Voter has already Voted!\"\n        );\n        require(\n            _weight <= voters[_electionId][_voter].weight,\n            \"Voter do not have so many votes\"\n        );\n        require(\n            candidateExists(_electionId, _candidateId),\n            \"Invalid candidate to Vote!\"\n        );\n\n        //update the vote count of the voted proposal\n        candidates[_electionId][_candidateId].voteCount =\n            candidates[_electionId][_candidateId].voteCount +\n            _weight;\n\n        //subtract the votes to the voter Structure\n        voters[_electionId][_voter].weight =\n            voters[_electionId][_voter].weight -\n            _weight;\n\n        //set the variable voted to true if the voter does not have other votes\n        if (voters[_electionId][_voter].weight == 0) {\n            voters[_electionId][_voter].voted = true;\n        }\n\n        emit Voted(_electionId, _voter, _candidateId, _weight);\n    }\n\n    //Public function to vote\n    function vote(\n        uint32 _electionId, //the election in which vote\n        uint8 _candidateId, //the proposal to vote\n        uint256 _weight //\"how many times\" vote\n    ) public {\n        voterVote(_electionId, msg.sender, _candidateId, _weight);\n    }\n\n    //get list of elections\n    function getCurrentElections() public view returns (bytes32[] memory) {\n        bytes32[] memory result = new bytes32[](currentElections.length);\n        for (uint32 i = 0; i < currentElections.length; i++) {\n            result[i] = elections[currentElections[i]].name;\n        }\n        return result;\n    }\n\n    //get list of proposal of an election\n    function getCandidatesForElection(uint32 _electionId)\n        public\n        view\n        returns (bytes32[] memory)\n    {\n        require(electionExists(_electionId), \"The election doesn't exist\");\n        bytes32[] memory result = new bytes32[](\n            candidatesList[_electionId].length\n        );\n        for (uint8 i = 0; i < candidatesList[_electionId].length; i++)\n            result[i] = candidates[_electionId][candidatesList[_electionId][i]]\n                .name;\n        return result;\n    }\n\n    //register for an election\n    function registerVoter(uint32 _electionId, address voter) private {\n        voters[_electionId][voter].weight = 1;\n    }\n\n    function register(uint32 _electionId) public {\n        require(checkRegistrationOpen(_electionId), \"Registration not open\");\n        registerVoter(_electionId, msg.sender);\n    }\n\n    function checkRegistrationOpen(uint32 _electionId)\n        public\n        view\n        returns (bool)\n    {\n        return ((elections[_electionId].startRegistration <= block.timestamp) &&\n            (elections[_electionId].endRegistration >= block.timestamp));\n    }\n\n    function checkElectionOpen(uint32 _electionId) public view returns (bool) {\n        return ((elections[_electionId].startElection <= block.timestamp) &&\n            (elections[_electionId].endElection >= block.timestamp));\n    }\n\n    function voterHasRegistred(uint32 _electionId, address voter)\n        public\n        view\n        returns (bool)\n    {\n        return ((voters[_electionId][voter].weight != 0) ||\n            (voters[_electionId][voter].voted == true));\n    }\n\n    function voterHasVoted(uint32 _electionId, address voter)\n        public\n        view\n        returns (bool)\n    {\n        return voters[_electionId][voter].voted;\n    }\n\n    function electionExists(bytes32 _electionName) public view returns (bool) {\n        return electionsIds[_electionName] != 0;\n    }\n\n    function electionExists(uint32 _electionId) public view returns (bool) {\n        return elections[_electionId].id != 0;\n    }\n\n    function candidateExists(uint32 _electionId, uint8 _candidateId)\n        public\n        view\n        returns (bool)\n    {\n        return (candidates[_electionId][_candidateId].name != 0);\n    }\n\n    function getCandidateId(uint32 _electionId, bytes32 _candidatename)\n        public\n        view\n        returns (uint8)\n    {\n        return candidatesIds[_electionId][_candidatename];\n    }\n}\n",
  "sourcePath": "contracts/SimpleElection.sol",
  "type": "contract"
}